:060000000A128A110C280F
:10000800FE00030EF0000A08F1000A128A11282FD8
:100018000A128A110F2883135D30FD000730FE0095
:10002800C030FF004C3084000A128A119E270A1241
:100038008A112030840037300A128A15EF270A12F5
:100048008A11FA01FB0183010A128A112B288312F3
:100058000313C801C501CB01C901CA010A128A11DB
:10006800A6250A128A110A128A11E5250A128A118E
:100078000A128A11AD270A128A1146308312031315
:10008800BF003F08F200F301F30A47300A128A1151
:10009800C9260A128A1183120313C6010A128A1189
:1000A800D1270A128A1158280A128A117A240A12A8
:1000B8008A110A128A11E0270A128A11A12A1B2B17
:1000C8000A128A1183270A128A1183120313BF00A6
:1000D8003F08CB0041304B06031D7328742879284C
:1000E8006430C9000030CA001B2B42304B06031D88
:1000F8007E287F2884286E30C9000030CA001B2B58
:1001080043304B06031D89288A288F287830C90078
:100118000030CA001B2B44304B06031D9428952839
:100128009A288230C9000030CA001B2B31304B0698
:10013800031D9F28A028A5288C30C9000030CA00BC
:100148001B2B32304B06031DAA28AB28B02896304B
:10015800C9000030CA001B2B33304B06031DB528DD
:10016800B628BB28A030C9000030CA001B2B343089
:100178004B06031DC028C128C628AA30C900003074
:10018800CA001B2B35304B06031DCB28CC28D128A1
:10019800B430C9000030CA001B2B36304B06031D93
:1001A800D628D728DC28BE30C9000030CA001B2B4F
:1001B80037304B06031DE128E228E728C830C9007C
:1001C8000030CA001B2B38304B06031DEC28ED28E5
:1001D800F228D230C9000030CA001B2B39304B0638
:1001E800031DF728F828FD28DC30C9000030CA00B4
:1001F8001B2B61304B06031D022903290829E63011
:10020800C9000030CA001B2B62304B06031D0D29A4
:100218000E291329F030C9000030CA001B2B6330A7
:100228004B06031D182919291E29FA30C900003068
:10023800CA001B2B64304B06031D232924291B2BC2
:100248000430C9000130CA001B2B1B2B1B2B1B2B96
:100258001B2B1B2B1B2B1B2B1B2B1B2B1B2B1B2B66
:100268001B2B1B2B1B2B1B2B1B2B1B2B46146530F3
:10027800C9000030CA001B2BC71C432944291B2B6B
:100288000A30C9000030CA001B2B1B2BC6146F3064
:10029800C9000030CA001B2BC71D532954291B2B2A
:1002A8000A30C9000030CA001B2B1B2B46157930B9
:1002B800C9000030CA001B2BC71E632964291B2BE9
:1002C8000A30C9000030CA001B2B1B2BC61583300F
:1002D800C9000030CA001B2B0A30C9000030CA0010
:1002E8001B2B063083120313C1001330C000AD303E
:1002F800BF00BF0B7D29C00B7D29C10B7D298D3027
:1003080083120313C9000030CA001B2B0A30C9002E
:100318000030CA001B2B0B3083120313C100263098
:10032800C0005D30BF00BF0B9729C00B9729C10BD8
:100338009729973083120313C9000030CA001B2B7A
:100348000A30C9000030CA001B2B10308312031377
:10035800C1003930C0000D30BF00BF0BB129C00B40
:10036800B129C10BB129A13083120313C900003090
:10037800CA001B2B0A30C9000030CA001B2B1530DD
:1003880083120313C1004B30C000BD30BF00BF0B48
:10039800CB29C00BCB29C10BCB29D229AB30831277
:1003A8000313C9000030CA001B2B0A30C9000030F3
:1003B800CA001B2B1A3083120313C1005E30C00021
:1003C8006D30BF00BF0BE629C00BE629C10BE6293B
:1003D800ED29B53083120313C9000030CA001B2B66
:1003E8000A30C9000030CA001B2B1F3083120313C8
:1003F800C1007130C0001D30BF00BF0B012AC00B07
:10040800012AC10B012A082ABF3083120313C9002D
:100418000030CA001B2B0A30C9000030CA001B2B51
:10042800243083120313C1008330C000CE30BF00D4
:10043800BF0B1C2AC00B1C2AC10B1C2A0000C93088
:1004480083120313C9000030CA001B2B0A30C900ED
:100458000030CA001B2B293083120313C1009630C9
:10046800C0007E30BF00BF0B372AC00B372AC10B34
:10047800372A0000D33083120313C9000030CA00A2
:100488001B2B0A30C9000030CA001B2B2E308312E8
:100498000313C100A930C0002E30BF00BF0B522A81
:1004A800C00B522AC10B522A0000DD3083120313FD
:1004B800C9000030CA001B2B0A30C9000030CA002E
:1004C8001B2B4610E730C9000030CA001B2B471C05
:1004D8006E2A6F2A1B2B0A30C9000030CA001B2B5A
:1004E8001B2BC610F130C9000030CA001B2B471D5A
:1004F8007E2A7F2A1B2B0A30C9000030CA001B2B1A
:100508001B2B4611FB30C9000030CA001B2B471EAD
:100518008E2A8F2A1B2B0A30C9000030CA001B2BD9
:100528001B2BC6110530C9000130CA001B2B0A302D
:10053800C9000030CA001B2B1B2B831203134A0867
:10054800003A0319AB2A013A0319132B1B2B49084C
:10055800003A03191B2B0A3A031964286E3A031947
:100568003A29013A031940290B3A03194A29013A51
:1005780003195029173A03195A29013A031960290E
:10058800FB3A03196A29013A031970290F3A03192A
:100598007529013A03198A291B3A03198F29013A47
:1005A8000319A429373A0319A929013A0319BE29BD
:1005B8000B3A0319C329013A0319D9291F3A031918
:1005C800DE29013A0319F4290B3A0319F929013AEA
:1005D80003190F2A773A0319142A013A03192A2A08
:1005E8001B3A03192F2A013A0319452A0F3A03190E
:1005F8004A2A013A0319602A3B3A0319652A013A43
:1006080003196B2A173A0319752A013A03197B2A29
:100618000B3A0319852A013A03198B2A1B2B49081F
:10062800043A0319952A013A03199B2A1B2B0A122B
:100638008A15D9270A128A11003A0319242B252B67
:10064800702C0A128A15DE270A128A11003A031D35
:100658002E2B2F2B702C0A128A15D9270A128A11D1
:1006680083120313BF003F08C800212C0130BF00CC
:100678003F08C207421C412B422B492B48080A124B
:100688008A11EE270A128A115B2C83120313480879
:1006980020380A128A11EE270A128A115B2C5B2C69
:1006A800013083120313BF003F08C307431C5D2BAF
:1006B8005E2B652B48080A128A11EE270A128A1146
:1006C8005B2C83120313480820380A128A11EE277C
:1006D8000A128A115B2C5B2C013083120313BF00B2
:1006E8003F08C407441C792B7A2B812B48080A122F
:1006F8008A11EE270A128A115B2C83120313480809
:1007080020380A128A11EE270A128A115B2C5B2CF8
:10071800013083120313BF003F08C507451C952B02
:10072800962B9D2B48080A128A11EE270A128A1165
:100738005B2C83120313480820380A128A11EE270B
:100748000A128A115B2C5B2C0A128A15E8270A12F6
:100758008A1183120313C501C401C301C201C60172
:100768000A128A15F7270A128A1183120313C9017C
:10077800CA015B2CC62BC62BC62BC62BC62BC62B79
:10078800C62BC62B48080A128A11EE270A128A11AC
:100798005B2CE52B83120313C2010E2CC201C20A83
:1007A8000E2CC3010E2CC301C30A0E2CC4010E2C3F
:1007B800C401C40A0E2CC5010E2CC501C50A0E2C95
:1007C8000E2C01300A128A114A270A128A11831242
:1007D8000313BF00C0014008003A0319F42B0E2C84
:1007E8003F08413A0319CE2B033A0319D52B013A96
:1007F8000319DA2B073A0319DF2B253A0319D22BF1
:10080800033A0319D72B013A0319DC2B073A0319CA
:10081800E12B0E2C0A128A15E8270A128A115B2C82
:100828000A128A15D7270A128A110A30831203136B
:10083800C9000030CA005B2C5B2C4808BF00C0010F
:100848004008003A0319292C5B2C3F08233A031966
:10085800142C093A0319E52B1A3A0319A82B013A63
:100868000319C62B033A0319C62B013A0319C62BE1
:10087800073A0319C62B013A0319C62B033A031981
:10088800C62B013A0319C62B0F3A0319C62B013A96
:100898000319C62B783A03193A2B033A0319542B38
:1008A800013A0319702B073A03198C2B5B2C83121E
:1008B8000313B701B70A0A128A11FC270A128A1110
:1008C80083120313B8000030B90000300A128A11ED
:1008D8005E260A128A11702C0A128A1123260A121D
:1008E8008A11582858280A128A110C2883120313CF
:1008F800B701B90104303902031C832C842C862CDF
:10090800ED2CED2C0130F200390A8C2C0310F20D7D
:10091800FF3E031D8A2C7208FF3AF300F30E060807
:1009280073060F3973068600B80104303802031CB9
:100938009E2C9F2CA12CE22CE22C06080F39F200E9
:100948007209F300F401F409380AF5000130F600E1
:100958000030F700B22C0310F60DF70DF50BAF2C95
:1009680073087605F80074087705F90078087904A3
:100978000319BF2CC02CD72C3808F2000230031002
:10098800F20DFF3E031DC32C01307207F300390836
:10099800730784000A128A1160250A128A11F4006A
:1009A8007408B700D72C0130F2007208B807043079
:1009B8003802031CE02CE12CA12CE22C0130F200BF
:1009C8007208B90704303902031CEB2CEC2C862C76
:1009D800ED2C2508F2007208A6003708F20072080C
:1009E800A500F62C0800F4007408F2007208F5005F
:1009F800831203130812750E0F39F20008087206E5
:100A0800F039720688008812740303190C2D0D2D15
:100A1800142D02307406031D122D132D1E2D142DB6
:100A28000330F3009730F200F20B182DF30B182D5A
:100A38001D2D232D0D30F200F20B202D232D8312B6
:100A4800031388162030740603192B2D2C2D552DD1
:100A5800081275080F39F20008087206F039720694
:100A680088008812740303193A2D3B2D422D023059
:100A78007406031D402D412D4C2D422D0330F300EB
:100A88009730F200F20B462DF30B462D4B2D512DCE
:100A98000D30F200F20B4E2D512D831203138816E0
:100AA800552D0800FF1B602D83137F18831700083E
:100AB800840A0319FF0A080005308A000408840A1A
:100AC80082070034313432343334413434343534E9
:100AD8003634423437343834393443342A343034B1
:100AE800233444340034033407340B340E340534CF
:100AF80049344E3453344934523441342034413427
:100B08002034533445345134553445344E342E341E
:100B18000034533445345134553445344E34433419
:100B28004934413444344F3452340034503452340C
:100B38004F344734523441344D34413456344534BB
:100B48004C3400348312031308138813081208085E
:100B5800F039033888008816C030831603138800DC
:100B68008230F700DD30F600F60BB82DF70BB82D04
:100B7800BD2D20300A128A11F7240A128A11283052
:100B88000A128A11F7240A128A110C300A128A11E1
:100B9800F7240A128A1101300A128A11F7240A125C
:100BA8008A1102300A128A11F7240A128A11823035
:100BB800F700DD30F600F60BDF2DF70BDF2DE42D07
:100BC800080083120313B7012830B8008030B90039
:100BD80002300A128A115E260A128A110230831222
:100BE8000313BE000430BD00B930BC00BC0BFA2DA5
:100BF800BD0BFA2DBE0BFA2D012E83120313B7017C
:100C0800B70A3530B8008030B90002300A128A11AC
:100C18005E260A128A110B3083120313BE00263097
:100C2800BD005D30BC00BC0B172EBD0B172EBE0BD4
:100C3800172E0A128A15E8270A128A110800831249
:100C480003132208FF3EF6007608B7000A128A1539
:100C5800E3270A128A1183120313B801512E3803AD
:100C6800FF3A37072307F600760884008313000845
:100C78000A128A11FD260A128A11F7008312031339
:100C880038082407F8007808840077088313800060
:100C98000130F6007608B807512E22083802031CE6
:100CA800562E572E332E582E0A128A15E3270A126B
:100CB8008A11080083120313BB003708BA003A08E8
:100CC800F6003B080A128A116B270A128A11832E32
:100CD800831203133908FF00380884000A128A11A6
:100CE80056250A128A110A128A1195260A128A11A1
:100CF800013083120313B8070318B90A832E83122D
:100D080003133908FF00380884000A128A1156258F
:100D18000A128A11003A031D922E932E6C2E942EDD
:100D28000800F4007408F2007208F5008312031337
:100D38000816750E0F39F20008087206F0397206A7
:100D4800880088120330F3009730F200F20BAA2EC5
:100D5800F30BAA2EAF2E83120313881608167508F4
:100D68000F39F20008087206F039720688008812F6
:100D78000330F3009730F200F20BC02EF30BC02EB5
:100D8800C52E8312031388160800F5007508F400B1
:100D9800740883120313A4007208F4007408A300F3
:100DA8007308F4007408A2008511831603178811CC
:100DB8008316031385118312031305118316031772
:100DC80008118316031305118312031305108316E4
:100DD80003170810831603130510831603178810CA
:100DE8008316031385148312031305110510851543
:100DF8000800F3008030F2007208F500F4011D2F9E
:100E08008312031305117308750503190C2F0D2F91
:100E18000F2F0514102F0510851C132F142F192FB1
:100E28007508F2007208F404192F05150310F50C63
:100E38001D2F7508031D212F222F042F8312031342
:100E480005117408272F08008B1E2B2F2C2F432FDA
:100E58000B1D2F2F302F432F0B1106308312031336
:100E680081002008210403193A2F3B2F432FFF301C
:100E7800A0070318A10AFF30A107432F432F7108C9
:100E88008A00700E8300FE0E7E0E0900F3005C2FB0
:100E98000130FB027B08273E840083130008F20020
:100EA8007208F4007B08273E840080010130F302B9
:100EB80073080319602F612F682F7B08031D652FA6
:100EC800662F4C2F682F682F74086A2F0800F900C6
:100ED8003F307905F7007608F80005300310F80D63
:100EE800FF3E031D722F0310780DFF3A013E803834
:100EF80077070A128A11F7240A128A110800F301E7
:100F08007A087B060319892F8A2F972F7A08273E9C
:100F1800840083130008F2007208F3000130F20025
:100F28007208FA07972F7308992F08007E088A001D
:100F38007F0882000A128A119A270A128A118000F1
:100F4800840A04087D0603190034FF0A0319FE0AFF
:100F58009E2FFF308312031386008316031789011F
:100F68000F30831603138600FF3095008113831218
:100F78000313A601A50108002034203420342034AE
:100F8800203420345B34203420345D342034203441
:100F9800203420342034203400348B138316031378
:100FA800811281110111811001140630831203137B
:100FB80081008B128B17080083120313B7011730B7
:100FC800B8008030B90000300A128A115E260A1271
:100FD8008A110800F3007308F2007B08273E84009A
:100FE8007208831380000130F2007208FB070800C2
:060FF8002730FE2F080067
:101FAE00FA010800831203132508DD2F080083129F
:101FBE0003132608E22F08008312031385118515DB
:101FCE00080001300A128A11F7240A128A15080035
:101FDE0064008001840A0406031900340406F02FFD
:101FEE0010300A128A114A270A128A15FB01FA01C9
:021FFE000800D9
:02400E00D4EFED
:00000001FF
