:020000040000FA
:060000000A128A110C280F
:10000800FE00030EF0000A08F1000A128A152C2FD0
:100018000A128A110F288313B130FD000E30FE003A
:100028004E30FF00A03084000A128A1589260A1271
:100038008A116530FD000F30FE004E30FF0043305E
:1000480084000A128A1589260A128A11203084002F
:1000580043300A128A11F8270A128A11FA01FB01A1
:1000680083010A128A11182ABE29172A7A08031D41
:100078003E283F2846280E30F800780883120313DC
:10008800AA00172A7A03031D4A284B2852280B3046
:10009800F800780883120313AA00172A0C30F80016
:1000A800780883120313AA00172A172A172A7A082E
:1000B800031D5F28602865280E30F8007808AA001C
:1000C800172A02307A02031C6A286B28172A0C3078
:1000D800F8007808AA00172A172A172A0A128A1578
:1000E800C6250A128A110A128A15C2250A128A110D
:1000F80083120313AA01172A0A128A15B0260A12B4
:100108008A11F800F901780883120313A20079080C
:10011800A3000F30F8007808AA00172AE7286430EF
:10012800F8007808AA00172A6E30F8007808AA00A4
:10013800172A7830F8007808AA00172A8230F800C1
:100148007808AA00172AE630F8007808AA00172AC3
:10015800F030F8007808AA00172AFA30F800780872
:10016800AA00172A0430F8007808AA00172AC3281A
:10017800C328C328C328C328C328C328C3282208E0
:10018800D03EF20023080318013EFF3EF300E8309A
:10019800F4000330F5000A128A1570270A128A1132
:1001A800730883120313A1007208A0008C30F800B2
:1001B8007808AA00172AAA010A128A15C6250A125F
:1001C8008A11172A172A831203132308003A0319DE
:1001D800EE28DF282208313A0319C328033A031905
:1001E800C328013A0319C328073A0319C328013A57
:1001F8000319C328033A0319C328013A0319C3286A
:100208000F3A0319C328013A0319C328783A031986
:100218009328033A03199828013A03199D28073AA5
:100228000319A228253A0319A728033A0319AC2869
:10023800013A0319B128073A0319B628DF28172A03
:1002480041146530F8007808AA00172AC21C2D2925
:100258002E29172A0A30F8007808AA00172A172A20
:100268004110E730F8007808AA00172A421C3D29F7
:100278003E29172A0A30F8007808AA00172A172AF0
:10028800C1146F30F8007808AA00172AC21D4D293A
:100298004E29172A0A30F8007808AA00172A172AC0
:1002A800C110F130F8007808AA00172A421D5D290C
:1002B8005E29172A0A30F8007808AA00172A172A90
:1002C80041157930F8007808AA00172AC21E6D294E
:1002D8006E29172A0A30F8007808AA00172A172A60
:1002E8004111FB30F8007808AA00172A421E7D2920
:1002F8007E29172A0A30F8007808AA00172A172A30
:10030800C1158330F8007808AA00172A0A30F800C7
:100318007808AA00172AC1110530F8007808AA0041
:10032800172A0A30F8007808AA00172A2108F300CB
:100338002008F2000A128A15EA250A128A118D305D
:10034800F800780883120313AA00172A0A128A15DC
:10035800F2250A128A1172087304031DB429B529FB
:10036800172A0A30F800780883120313AA00172AFC
:10037800172A172A831203132A08F800F9017908A3
:10038800003A0319CB29013A03190F2A172A7808CA
:10039800003A0319172A0A3A03193A28013A0319A5
:1003A8005B28073A03197228023A03198028013A90
:1003B8000319E7286B3A03192429013A03192A2952
:1003C8000B3A03194429013A03194A29173A031920
:1003D8006429013A03196A29FB3A03198429013A65
:1003E80003198A290F3A03199A29013A0319AA29E4
:1003F8006B3A03193429013A03193A29173A0319B0
:100408005429013A03195A290B3A03197429013A54
:1004180003197A29172A7808043A03198F29013A07
:1004280003199529172A080083160313B201B1018D
:10043800B10A0A128A11DE260A128A110A128A11D0
:100448001D270A128A110A128A1572260A128A119F
:10045800413083120313EE006E08F200F301F30A31
:1004680042300A128A15CC270A128A110A128A15F2
:100478001E260A128A11402A0A128A1186250A1291
:100488008A1183160313B2010A128A15CA250A12A1
:100498008A11003A0319512A522A352B0A128A1551
:1004A800D9250A128A11003A031D5B2A5C2A352BCA
:1004B8000A128A15CA250A128A1183120313EE003A
:1004C8006E0883160313B200352B352B6430831264
:1004D800EE006E0883160313B100552B0A128A1515
:1004E800EA260A128A1183160313B101552B233009
:1004F800831603133206031D822A832A962AC830DC
:1005080083120313EE006E0883160313B1000A1258
:100518008A150B270A128A110A128A116B240A12E9
:100528008A11552B83160313320803199C2A9D2A16
:10053800552B32080A128A115F230A128A11653074
:1005480083120313EE006E0883160313B100552BB4
:10055800552B552B0A128A11FD240A128A11643070
:1005680083120313EE006E0883160313B100552B94
:100578003030831603133206031DC32AC42AD22A35
:100588000A128A15EA260A128A11643083120313A2
:10059800EE006E0883160313B100552B2330320684
:1005A800031DD72AD82A552B0A128A153D260A1266
:1005B8008A11C93083120313EE006E0883160313E1
:1005C800B100552B552B552B0A128A1505260A12F0
:1005D8008A11003A0319F12AF22A002BC830831233
:1005E8000313EE006E0883160313B1000A128A1172
:1005F8006B240A128A11552B2A30831603133206EC
:10060800031D072B082B0E2B0A128A15CF250A1259
:100618008A111D2B2330831603133206031D152B55
:10062800162B1D2B0A128A15BD250A128A111D2B9D
:100638001D2B0A128A152D260A128A11003A03194F
:10064800262B272B2D2B0A128A116B240A128A11AA
:100658002D2B0A128A1138200A128A11552B552B74
:10066800552B83160313310883120313EE00EF0191
:100678006F08003A0319412B552B6E08003A0319ED
:100688006A2A013A0319722A653A03197B2A013A40
:100698000319AE2AAD3A0319BC2A013A0319E82A0C
:1006A800552B0A128A115B270A128A11402A402AFE
:1006B8000A128A110C28F700332C0130F50075084E
:1006C80083120313A907291C6A2B6B2B722B77083B
:1006D8000A128A1510260A128A116A2C77082038FD
:1006E8000A128A1510260A128A116A2C6A2C0130FD
:1006F800F500750883120313A807281C842B852B83
:100708008C2B77080A128A1510260A128A116A2C6D
:10071800770820380A128A1510260A128A116A2CBC
:100728006A2C0130F500750883120313A707271CEC
:100738009E2B9F2BA62B77080A128A1510260A12C1
:100748008A116A2C770820380A128A1510260A128C
:100758008A116A2C6A2C0130F5007508831203137C
:10076800A607261CB82BB92BC02B77080A128A15A6
:1007780010260A128A116A2C770820380A128A155C
:1007880010260A128A116A2C6A2CD12BD12BD12B54
:10079800D12BD12BD12BD12BD12B77080A128A152B
:1007A80010260A128A116A2C83120313A601A701C4
:1007B800A801A9010A128A15FA250A128A116A2CB7
:1007C8000A2C83120313A9016A2C83120313A901AB
:1007D800A90A6A2C83120313A8016A2C8312031333
:1007E800A801A80A6A2C83120313A7016A2C831292
:1007F8000313A701A70A6A2C83120313A6016A2C04
:1008080083120313A601A60A6A2C6A2C01300A1265
:100818008A15C9260A128A11F500F6017608003AE7
:100828000319172C6A2C7508413A0319E52B033A6A
:100838000319EE2B013A0319F72B073A0319002C79
:10084800253A0319E92B033A0319F22B013A031944
:10085800FB2B073A0319042C6A2C6A2C6A2C77089C
:10086800F500F6017608003A03193B2C6A2C750846
:100878002A3A03190A2C1A3A0319D82B013A0319F0
:10088800D12B033A0319D12B013A0319D12B073A7B
:100898000319D12B013A0319D12B033A0319D12B90
:1008A800013A0319D12B0F3A0319D12B013A031935
:1008B800D12B783A0319612B033A03197B2B013AA0
:1008C8000319952B073A0319AF2B6A2C08000A1253
:1008D8008A15D4250A128A1183120313EA006A08BA
:1008E800EB00EC01ED01E501E50A4330E6000030DC
:1008F800E70000300A128A1196270A128A11E82C9A
:10090800831203136B080A128A155F260A128A11CA
:1009180083120313EA006A08ED00F601F60A6C0870
:10092800113E84000A128A110D260A128A110A122F
:100938008A1598260A128A113030831203136D0221
:10094800031CA72CA82CBB2C3A306D020318AD2C25
:10095800AE2CBB2C6D080A128A1598270A128A1128
:1009680073300A128A1598270A128A11DD2CED1E97
:10097800BE2CBF2CCD2C6D08DF390A128A1598279A
:100988000A128A112D300A128A1598270A128A111A
:10099800DD2C831203136D080A128A1598270A1290
:1009A8008A112B300A128A1598270A128A11DD2C0F
:1009B800DD2C013083120313EA006A08EB070130CB
:1009C800EA006A08EC07E82C0A128A15BF250A1201
:1009D8008A11831203136B020318F32CF42CFC2CDA
:1009E80005306C02031CF92CFA2C842CFC2CFC2CF2
:1009F80008000A128A15BF250A128A1183120313E6
:100A0800EA006A08EB000530EA006A08EC00ED012C
:100A1800E501E50A5430E6000030E70000300A122C
:100A28008A1196270A128A11772D0130831203132F
:100A3800EB020130EC026B080A128A155F260A12D3
:100A48008A1183120313EA006A08ED00F601F60A18
:100A58006C08163E84000A128A110D260A128A11A1
:100A68000A128A1598260A128A1130308312031343
:100A78006D02031C402D412D542D3A306D02031890
:100A8800462D472D542D6D080A128A1598270A12EB
:100A98008A1173300A128A1598270A128A11772D3B
:100AA800ED1E572D582D662D6D08DF390A128A154F
:100AB80098270A128A112D300A128A1598270A12C5
:100AC8008A11772D831203136D080A128A15982745
:100AD8000A128A112B300A128A1598270A128A11CB
:100AE800772D772D772D831203136B0803197D2D2E
:100AF8007E2D852D6C08031D822D832D192D852DA6
:100B0800852D080083120313E501E701043067020D
:100B1800031C8F2D902D922DF92DF92D0130F20007
:100B2800670A982D0310F20DFF3E031D962D7208DB
:100B3800FF3AF300F30E060873060F3973068600B2
:100B4800E60104306602031CAA2DAB2DAD2DEE2D57
:100B5800EE2D06080F39F2007209F300F401F409CA
:100B6800660AF5000130F6000030F700BE2D0310CC
:100B7800F60DF70DF50BBB2D73087605F800740814
:100B88007705F900780879040319CB2DCC2DE32DCE
:100B98006608F20002300310F20DFF3E031DCF2D50
:100BA80001307207F3006708730784000A128A117C
:100BB8000D260A128A11F4007408E500E32D0130AD
:100BC800F2007208E60704306602031CEC2DED2DD6
:100BD800AD2DEE2D0130F2007208E70704306702F0
:100BE800031CF72DF82D922DF92D2E08F20072080E
:100BF800AF006508F2007208AE00022E0800FF1B65
:100C08000D2E83137F1883170008840A0319FF0A1F
:100C1800080006308A000408840A82070034313448
:100C2800323433344134343435343634423437345E
:100C38003834393443342A34303423344434013496
:100C4800053408340B340E340034033406340934C4
:100C58000D340034033407340B340E3405345B345C
:100C680045347834653463347534633461346F34AF
:100C780020343E343E343E34203420342034003492
:100C8800203420342034203420343C343C343C3468
:100C98002034453464346934633461346F345D34EA
:100CA800003449344E3453344934523441342034B6
:100CB80041342034533445345134553445344E345A
:100CC8002E340034533445345134553445344E347D
:100CD80043344934413444344F345234003450346A
:100CE80052344F344734523441344D3441345634FD
:100CF80045344C340034F4007408F2007208F500EE
:100D0800831203130812750E0F39F20008087206D1
:100D1800F03972068800881274030319942E952EF0
:100D28009C2E02307406031D9A2E9B2EA62E9C2EF6
:100D38000330F3009730F200F20BA02EF30BA02E35
:100D4800A52EAB2E0D30F200F20BA82EAB2E83127F
:100D580003138816203074060319B32EB42EDD2E23
:100D6800081275080F39F20008087206F039720681
:100D78008800881274030319C22EC32ECA2E0230AB
:100D88007406031DC82EC92ED42ECA2E0330F300B4
:100D98009730F200F20BCE2EF30BCE2ED32ED92E97
:100DA8000D30F200F20BD62ED92E831203138816BB
:100DB800DD2E08008312031308138813081208088D
:100DC800F039033888008816C0308316031388006A
:100DD8008230F700DD30F600F60BF02EF70BF02E20
:100DE800F52E20300A128A117F260A128A1128301D
:100DF8000A128A117F260A128A110C300A128A11E5
:100E08007F260A128A1101300A128A117F260A12D5
:100E18008A1102300A128A117F260A128A11823038
:100E2800F700DD30F600F60B172FF70B172F1C2FE6
:100E3800080083120313E5015430E6008030E70010
:100E480002300A128A1196270A128A110230831276
:100E58000313EC000430EB00B930EA00EA0B322F40
:100E6800EB0B322FEC0B322F392F83120313E501D2
:100E7800E50A6130E6008030E70002300A128A1184
:100E880096270A128A110B3083120313EC002630BE
:100E9800EB005D30EA00EA0B4F2FEB0B4F2FEC0B0A
:100EA8004F2F0A128A15E3250A128A1108008312A5
:100EB80003132B08FF3EF6007608E5000A128A1590
:100EC800DE250A128A1183120313E601892F6603AD
:100ED800FF3A65072C07F60076088400831300089C
:100EE8000A128A11CD270A128A11F70083120313F6
:100EF80066082D07F80078088400770883138000B7
:100F08000130F6007608E607892F2B086602031CD5
:100F18008E2F8F2F6B2F902F0A128A15DE250A121B
:100F28008A11080083120313E9006508E8006808BD
:100F3800F60069080A128A1598260A128A11BB2F28
:100F4800831203136708FF00660884000A128A11D7
:100F580003260A128A110A128A1598270A128A1178
:100F6800013083120313E6070318E70ABB2F831225
:100F780003136708FF00660884000A128A11032613
:100F88000A128A11003A031DCA2FCB2FA42FCC2F87
:100F98000800F3008030F2007208F500F401ED2F2C
:100FA800831203130511730875050319DC2FDD2F50
:100FB800DF2F0514E02F0510851CE32FE42FE92F00
:100FC8007508F2007208F404E92F05150310F50CF2
:100FD800ED2F7508031DF12FF22FD42F8312031361
:100FE80005117408F72F080064008001840A0406BC
:080FF800031900340406F92F6F
:101B7A00FA0108007B08C12D080083120313C10172
:101B8A00080083120313B0010800831203132E08FE
:101B9A00CE2D08000130F2007208FA0708008312FD
:101BAA0003133008D82D0800831203132F08DD2DE4
:101BBA0008008312031385118515080001300A12E3
:101BCA008A117F260A128A150800730883120313E2
:101BDA00A5007208A4008B160800831203132508B7
:101BEA00F3002408F200F92D080010300A128A15B1
:101BFA00C9260A128A15FB0183120313B0010800D1
:101C0A00831203132A0803190B2E0D2E01300E2EF0
:101C1A0000300F2E0800F3007308F2007B08313EF3
:101C2A0084007208831380000130F2007208FB07F7
:101C3A0008008B138316031381128111011181107D
:101C4A00011406308312031381008B128B170800CC
:101C5A000A30831203132A06031D342E352E392E19
:101C6A0001303C2E3C2E3C2E00303C2E3C2E0800EF
:101C7A000A30F200720883120313AA000A128A15A4
:101C8A00C6250A128A150A128A15BD250A128A154C
:101C9A0008002034203420342034203420345B34AB
:101CAA00203420345D34203420342034203420344D
:101CBA0020340034F2007B0872020318652E662E67
:101CCA006E2E7208313E840083130008712E712E25
:101CDA00712E0030712E712E0800FF30831203130B
:101CEA0086008316031789010F30831603138600B3
:101CFA00FF309500811383120313AF01AE01080070
:101D0A007E088A007F0882000A128A1585260A122E
:101D1A008A158000840A04087D0603190034FF0A24
:101D2A000319FE0A892EF9003F307905F700760873
:101D3A00F80005300310F80DFF3E031D9F2E031017
:101D4A00780DFF3A013E803877070A128A117F26FA
:101D5A000A128A150800F3018312031330087B065E
:101D6A000319B82EB92EC62E3008313E84008313CB
:101D7A000008F2007208F3000130F2007208B0079E
:101D8A00C62E7308C82E0800F300DB2E0130FB02B2
:101D9A007B08313E840083130008F2007208F400C5
:101DAA007B08313E840080010130F3027308031975
:101DBA00DF2EE02EE72E7B08031DE42EE52ECB2E28
:101DCA00E72EE72E7408E92E08000A128A15E32581
:101DDA000A128A1583120313E5013230E6008030B5
:101DEA00E70000300A128A1196270A128A1583120E
:101DFA000313E501E50A5430E6000030E70000303D
:101E0A000A128A1196270A128A1508000A128A15D6
:101E1A00E3250A128A1583120313E5012130E6002D
:101E2A008030E70000300A128A1196270A128A15B2
:101E3A0083120313E501E50A4330E6000030E700A8
:101E4A0000300A128A1196270A128A1508008B1E78
:101E5A002F2F302F472F0B1D332F342F472F0B11C6
:101E6A0006308312031381002408250403193E2F28
:101E7A003F2F472FFF30A4070318A50AFF30A507F5
:101E8A00472F472F71088A00700E8300FE0E7E0EC0
:101E9A0009005B34203420345D342034203420346B
:101EAA002034203420342034203420342034203488
:101EBA002034003420342034203420342034203498
:101ECA002034203420342034203420345B3420342D
:101EDA0020345D340034F601F701732F721C762F1B
:101EEA00772F7D2F7408F6070318F70A7508F70786
:101EFA0001300310F40DF50DFF3E031D7E2F013056
:101F0A000310F30CF20CFF3E031D852F72087304B5
:101F1A00031D902F912F732F922F7708F3007608C5
:101F2A00F200972F0800F4007408F2007208F50016
:101F3A00831203130816750E0F39F2000808720689
:101F4A00F0397206880088120330F3009730F200E5
:101F5A00F20BAD2FF30BAD2FB22F8312031388169A
:101F6A00081675080F39F20008087206F039720669
:101F7A00880088120330F3009730F200F20BC32F67
:101F8A00F30BC32FC82F8312031388160800F5001A
:101F9A007508F400740883120313AD007208F40084
:101FAA007408AC007308F4007408AB00851183163A
:101FBA00031788118316031385118312031305115E
:101FCA0083160317081183160313051183120313CB
:101FDA0005108316031708108316031305108316BA
:101FEA00031788108316031385148312031305112C
:061FFA000510851508002A
:02400E00D4EFED
:00000001FF
