:060000000A128A110C280F
:10000800FE00030EF1000A08F2000A128A11B42F4A
:100018000A128A110F2883136130FD000F30FE0089
:10002800EF30FF00503084000A128A11CE270A12DE
:100038008A112030840039300A128A15D0270A1212
:100048008A11F901FA0183010A128A112B288312F5
:100058000313CC01C901CF01CD01CE010A128A11C7
:10006800A8250A128A110A128A11E7250A128A118A
:100078000A128A11DD270A128A114A3083120313E1
:10008800C3004308F300F401F40A4B300A128A1142
:10009800CD260A128A1183120313CA010A128A1181
:1000A80085270A128A1158280A128A117A240A12F4
:1000B8008A110A128A11F0270A128A11A12A1B2B07
:1000C8000A128A119D270A128A1183120313C30088
:1000D8004308CF0041304F06031D73287428792840
:1000E8006430CD000030CE001B2B42304F06031D7C
:1000F8007E287F2884286E30CD000030CE001B2B50
:1001080043304F06031D89288A288F287830CD0070
:100118000030CE001B2B44304F06031D9428952831
:100128009A288230CD000030CE001B2B31304F068C
:10013800031D9F28A028A5288C30CD000030CE00B4
:100148001B2B32304F06031DAA28AB28B028963047
:10015800CD000030CE001B2B33304F06031DB528D1
:10016800B628BB28A030CD000030CE001B2B343081
:100178004F06031DC028C128C628AA30CD0000306C
:10018800CE001B2B35304F06031DCB28CC28D12899
:10019800B430CD000030CE001B2B36304F06031D87
:1001A800D628D728DC28BE30CD000030CE001B2B47
:1001B80037304F06031DE128E228E728C830CD0074
:1001C8000030CE001B2B38304F06031DEC28ED28DD
:1001D800F228D230CD000030CE001B2B39304F062C
:1001E800031DF728F828FD28DC30CD000030CE00AC
:1001F8001B2B61304F06031D022903290829E6300D
:10020800CD000030CE001B2B62304F06031D0D2998
:100218000E291329F030CD000030CE001B2B63309F
:100228004F06031D182919291E29FA30CD00003060
:10023800CE001B2B64304F06031D232924291B2BBA
:100248000430CD000130CE001B2B1B2B1B2B1B2B8E
:100258001B2B1B2B1B2B1B2B1B2B1B2B1B2B1B2B66
:100268001B2B1B2B1B2B1B2B1B2B1B2B4A146530EF
:10027800CD000030CE001B2BCB1C432944291B2B5F
:100288000A30CD000030CE001B2B1B2BCA146F3058
:10029800CD000030CE001B2BCB1D532954291B2B1E
:1002A8000A30CD000030CE001B2B1B2B4A157930AD
:1002B800CD000030CE001B2BCB1E632964291B2BDD
:1002C8000A30CD000030CE001B2B1B2BCA15833003
:1002D800CD000030CE001B2B0A30CD000030CE0000
:1002E8001B2B063083120313C5001330C400AD3036
:1002F800C300C30B7D29C40B7D29C50B7D298D3017
:1003080083120313CD000030CE001B2B0A30CD0022
:100318000030CE001B2B0B3083120313C500263090
:10032800C4005D30C300C30B9729C40B9729C50BC4
:100338009729973083120313CD000030CE001B2B72
:100348000A30CD000030CE001B2B1030831203136F
:10035800C5003930C4000D30C300C30BB129C40B2C
:10036800B129C50BB129A13083120313CD00003088
:10037800CE001B2B0A30CD000030CE001B2B1530D1
:1003880083120313C5004B30C400BD30C300C30B38
:10039800CB29C40BCB29C50BCB29D229AB3083126F
:1003A8000313CD000030CE001B2B0A30CD000030E7
:1003B800CE001B2B1A3083120313C5005E30C40015
:1003C8006D30C300C30BE629C40BE629C50BE6292B
:1003D800ED29B53083120313CD000030CE001B2B5E
:1003E8000A30CD000030CE001B2B1F3083120313C0
:1003F800C5007130C4001D30C300C30B012AC40BF3
:10040800012AC50B012A082ABF3083120313CD0025
:100418000030CE001B2B0A30CD000030CE001B2B45
:10042800243083120313C5008330C400CE30C300C8
:10043800C30B1C2AC40B1C2AC50B1C2A0000C9307C
:1004480083120313CD000030CE001B2B0A30CD00E1
:100458000030CE001B2B293083120313C5009630C1
:10046800C4007E30C300C30B372AC40B372AC50B20
:10047800372A0000D33083120313CD000030CE009A
:100488001B2B0A30CD000030CE001B2B2E308312E0
:100498000313C500A930C4002E30C300C30B522A71
:1004A800C40B522AC50B522A0000DD3083120313F5
:1004B800CD000030CE001B2B0A30CD000030CE001E
:1004C8001B2B4A10E730CD000030CE001B2B4B1CF5
:1004D8006E2A6F2A1B2B0A30CD000030CE001B2B52
:1004E8001B2BCA10F130CD000030CE001B2B4B1D4A
:1004F8007E2A7F2A1B2B0A30CD000030CE001B2B12
:100508001B2B4A11FB30CD000030CE001B2B4B1E9D
:100518008E2A8F2A1B2B0A30CD000030CE001B2BD1
:100528001B2BCA110530CD000130CE001B2B0A3021
:10053800CD000030CE001B2B1B2B831203134E085B
:10054800003A0319AB2A013A0319132B1B2B4D0848
:10055800003A03191B2B0A3A031964286E3A031947
:100568003A29013A031940290B3A03194A29013A51
:1005780003195029173A03195A29013A031960290E
:10058800FB3A03196A29013A031970290F3A03192A
:100598007529013A03198A291B3A03198F29013A47
:1005A8000319A429373A0319A929013A0319BE29BD
:1005B8000B3A0319C329013A0319D9291F3A031918
:1005C800DE29013A0319F4290B3A0319F929013AEA
:1005D80003190F2A773A0319142A013A03192A2A08
:1005E8001B3A03192F2A013A0319452A0F3A03190E
:1005F8004A2A013A0319602A3B3A0319652A013A43
:1006080003196B2A173A0319752A013A03197B2A29
:100618000B3A0319852A013A03198B2A1B2B4D081B
:10062800043A0319952A013A03199B2A1B2B0A122B
:100638008A15B3270A128A11003A0319242B252B8D
:10064800702C0A128A15B8270A128A11003A031D5B
:100658002E2B2F2B702C0A128A15B3270A128A11F7
:1006680083120313C3004308CC00212C0130C300BC
:100678004308C607461C412B422B492B4C080A123B
:100688008A15E1270A128A115B2C831203134C087E
:1006980020380A128A15E1270A128A115B2C5B2C72
:1006A800013083120313C3004308C707471C5D2B9F
:1006B8005E2B652B4C080A128A15E1270A128A114B
:1006C8005B2C831203134C0820380A128A15E12781
:1006D8000A128A115B2C5B2C013083120313C300AE
:1006E8004308C807481C792B7A2B812B4C080A121F
:1006F8008A15E1270A128A115B2C831203134C080E
:1007080020380A128A15E1270A128A115B2C5B2C01
:10071800013083120313C3004308C907491C952BF2
:10072800962B9D2B4C080A128A15E1270A128A116A
:100738005B2C831203134C0820380A128A15E12710
:100748000A128A115B2C5B2C0A128A15C9270A1215
:100758008A1183120313C901C801C701C601CA015E
:100768000A128A15D8270A128A1183120313CD0197
:10077800CE015B2CC62BC62BC62BC62BC62BC62B75
:10078800C62BC62B4C080A128A15E1270A128A11B1
:100798005B2CE52B83120313C6010E2CC601C60A77
:1007A8000E2CC7010E2CC701C70A0E2CC8010E2C2F
:1007B800C801C80A0E2CC9010E2CC901C90A0E2C81
:1007C8000E2C01300A128A112C270A128A11831260
:1007D8000313C300C4014408003A0319F42B0E2C78
:1007E8004308413A0319CE2B033A0319D52B013A92
:1007F8000319DA2B073A0319DF2B253A0319D22BF1
:10080800033A0319D72B013A0319DC2B073A0319CA
:10081800E12B0E2C0A128A15C9270A128A115B2CA1
:100828000A128A11FE270A128A110A308312031348
:10083800CD000030CE005B2C5B2C4C08C300C401FB
:100848004408003A0319292C5B2C4308233A03195E
:10085800142C093A0319E52B1A3A0319A82B013A63
:100868000319C62B033A0319C62B013A0319C62BE1
:10087800073A0319C62B013A0319C62B033A031981
:10088800C62B013A0319C62B0F3A0319C62B013A96
:100898000319C62B783A03193A2B033A0319542B38
:1008A800013A0319702B073A03198C2B5B2C83121E
:1008B8000313BB01BB0A0A128A15B0270A128A1150
:1008C80083120313BC000030BD0000300A128A11E5
:1008D80062260A128A11702C0A128A1125260A1217
:1008E8008A11582858280A128A110C28F301F50190
:1008F80004307502031C812C822C842CED2CED2CE9
:10090800013083120313B900750A8C2C0310B90D3A
:10091800FF3E031D8A2C3908FF3ABA00BA0E0608B2
:100928003A060F393A068600F40104307402031CB3
:100938009E2C9F2CA12CE22CE22C06080F39B90022
:100948003909BA00BB01BB09740ABC000130BD00FB
:100958000030BE00B22C0310BD0DBE0DBC0BAF2C79
:100968003A083D05BF003B083E05C0003F0840046B
:100978000319BF2CC02CD72C7408B90002300310FF
:10098800B90DFF3E031DC32C01303907BA007508A5
:100998003A0784000A128A1162250A128A11BB00DA
:1009A8003B08F300D72C0130B9003908F4070430AC
:1009B8007402031CE02CE12CA12CE22C0130B900BC
:1009C8003908F50704307502031CEB2CEC2C842C39
:1009D800ED2C831203132708B9003908A8007308FF
:1009E800B9003908A700F82C0800F5007508F300CD
:1009F8007308F600831203130812760E0F39F300FA
:100A080008087306F03973068800881275030319FD
:100A18000E2D0F2D162D02307506031D142D152DC4
:100A2800202D162D0330F4009730F300F30B1A2D08
:100A3800F40B1A2D1F2D252D0D30F300F30B222D4D
:100A4800252D8312031388162030750603192D2DC2
:100A58002E2D572D081276080F39F3000808730653
:100A6800F039730688008812750303193C2D3D2D53
:100A7800442D02307506031D422D432D4E2D442D65
:100A88000330F4009730F300F30B482DF40B482D96
:100A98004D2D532D0D30F300F30B502D532D831294
:100AA80003138816572D0800FF1B622D83137F1828
:100AB80083170008840A0319FF0A080005308A0012
:100AC8000408840A82070034313432343334413420
:100AD80034343534363442343734383439344334A2
:100AE8002A343034233444340034033407340B3488
:100AF8000E34053449344E34533449345234413475
:100B08002034413420345334453451345534453439
:100B18004E342E340034533445345134553445342E
:100B28004E3443344934413444344F34523400341D
:100B3800503452344F344734523441344D344134B4
:100B4800563445344C340034831203130813881385
:100B580008120808F039033888008816C030831650
:100B6800031388008230F800DD30F700F70BBA2D48
:100B7800F80BBA2DBF2D20300A128A11F9240A1257
:100B88008A1128300A128A11F9240A128A110C30A3
:100B98000A128A11F9240A128A1101300A128A11DA
:100BA800F9240A128A1102300A128A11F9240A1247
:100BB8008A118230F800DD30F700F70BE12DF80BD1
:100BC800E12DE62D080083120313BB012830BC0079
:100BD8008030BD0002300A128A1162260A128A1178
:100BE800023083120313C2000430C100B930C000C0
:100BF800C00BFC2DC10BFC2DC20BFC2D032E831248
:100C08000313BB01BB0A3530BC008030BD00023085
:100C18000A128A1162260A128A110B3083120313F0
:100C2800C2002630C1005D30C000C00B192EC10BB8
:100C3800192EC20B192E0A128A15C9270A128A11EF
:100C48000800831203132408FF3EB9003908F7008F
:100C58000A128A15BD270A128A11F801532E780341
:100C6800FF3A7707831203132507B9003908840070
:100C7800831300080A128A1101270A128A118312A3
:100C88000313BA0078082607BB003B0884003A081B
:100C9800831380000130B9003908F807532E8312F6
:100CA800031324087802031C5A2E5B2E332E5C2E65
:100CB8000A128A15BD270A128A1108008312031323
:100CC800BF003B08BE003E08F7003F080A128A1121
:100CD8006B270A128A11872E831203133D08FF001F
:100CE8003C0884000A128A1158250A128A110A122D
:100CF8008A1199260A128A11013083120313BC073C
:100D08000318BD0A872E831203133D08FF003C0811
:100D180084000A128A1158250A128A11003A031D02
:100D2800962E972E702E982E0800F5007508F30061
:100D38007308F600831203130816760E0F39F300B2
:100D480008087306F0397306880088120330F40027
:100D58009730F300F30BAE2EF40BAE2EB32E8312A6
:100D680003138816081676080F39F3000808730667
:100D7800F0397306880088120330F4009730F300C6
:100D8800F30BC42EF40BC42EC92E8312031388163A
:100D98000800F6007608F500750883120313A6000C
:100DA8007308F5007508A5007408F5007508A40017
:100DB800851183160317881183160313851183126F
:100DC800031305118316031708118316031305115E
:100DD80083120313051083160317081083160313D1
:100DE80005108316031788108316031385148312BE
:100DF80003130511051085150800F4008030F30071
:100E08007308F600F501212F8312031305117408E6
:100E180076050319102F112F132F0514142F051001
:100E2800851C172F182F1D2F7608F3007308F5045B
:100E38001D2F05150310F60C212F7608031D252FED
:100E4800262F082F83120313051175082B2F08006E
:100E5800F4003E2F0130FA027A08293E84008313F9
:100E68000008F3007308F5007A08293E8400800121
:100E78000130F40274080319422F432F4A2F7A08CD
:100E8800031D472F482F2E2F4A2F4A2F75084C2F06
:100E9800080006308312031381000130A0070318ED
:100EA800A10A0030A1072108803AF0002308803AFF
:100EB8007002031D612F22082002031C642F652F76
:100EC8006A2F83120313A001A1016A2F0800F800FA
:100ED8003F30780583120313B9007708BA0005304C
:100EE8000310BA0DFF3E031D742F03103A0DFF3A8D
:100EF800013E803839070A128A11F9240A128A1128
:100F080008008B13831603138112811101118110BC
:100F180001140630831203138100E830F300033014
:100F2800F4000A128A15C2270A128A118B168B1727
:100F38000800F40179087A060319A32FA42FB12F0A
:100F48007908293E840083130008F3007308F4002D
:100F58000130F3007308F907B12F7408B32F0800A4
:100F68008B1EB72FB82FC32F0B1DBB2FBC2FC32F22
:100F78000B110A128A114D270A128A11C32F7208FF
:100F88008A00710E8300FE0E7E0E09007E088A001C
:100F98007F0882000A128A11CA270A128A11800061
:100FA800840A04087D0603190034FF0A0319FE0A9F
:100FB800CE2FFF308312031386008316031789018F
:100FC8000F30831603138600FF30950081138312B8
:100FD8000313A801A701080083120313BB011730EC
:100FE800BC008030BD0000300A128A1162260A1245
:080FF8008A110800F90108004C
:101F60002930B22F0800831203132708B72F080067
:101F7000831203132808BC2F080083120313851152
:101F800085150800740883120313A3007308A200C8
:101F9000080001300A128A11F9240A128A15080071
:101FA00064008001840A0406031900340406D12F5A
:101FB00010300A128A112C270A128A15FA01F90127
:101FC0000800F4007408F3007A08293E84007308BE
:101FD000831380000130F3007308FA0708002034EF
:101FE000203420342034203420345B342034203416
:101FF0005D34203420342034203420342034003424
:02400E00D4EFED
:00000001FF
