:020000040000FA
:100000000A128A11F12F00308A000408840A82073C
:1000100000343134323433344134343435343634CA
:10002000423437343834393443342A343034233486
:02003000443456
:100222002530132908008312031323081829080014
:100232008312031324081D29080083120313851156
:100242008515080001300A128A11D6220A128A1173
:10025200080064008001840A0406031900340406BD
:100262002B29F1007108F0007D08253E84007008FA
:10027200831380000130F0007008FD070800FF3092
:100282008312031386008316031789010F30831626
:1002920003138600FF309500811383120313A40118
:1002A200A3010800F1017C087D06031959295A2986
:1002B20067297C08253E840083130008F00070083B
:1002C200F1000130F0007008FC0767297108692904
:1002D2000800F7003F307705F5007408F600053096
:1002E2000310F60DFF3E031D71290310760DFF3A30
:1002F200013E803875070A128A11D6220A128A1123
:100302000800F10094290130FD027D08253E840099
:1003120083130008F0007008F2007D08253E840077
:1003220080010130F1027108031998299929A02945
:100332007D08031D9D299E298429A029A0297208D0
:10034200A2290800FB007808FA007A08F4007B086A
:100352000A128A116A210A128A11BD2979088400B7
:10036200831300080A128A1126220A128A11013006
:10037200FA007A08F907BD29790884008313000876
:10038200031DC429C529AF29C6290800F100803000
:10039200F0007008F300F201E7298312031305113C
:1003A200710873050319D629D729D9290514DA2921
:1003B2000510851CDD29DE29E3297308F000700889
:1003C200F204E32905150310F30CE7297308031D52
:1003D200EB29EC29CE298312031305117208F129A6
:1003E2000800F3007308F200720883120313A200DC
:1003F2007008F2007208A1007108F2007208A000F1
:10040200851183160317881183160313851183122E
:10041200031305118316031708118316031305111D
:100422008312031305108316031708108316031390
:10043200051083160317881083160313851483127D
:1004420003130511051085150800F2007208F0006B
:100452007008F300831203130816730E0F39F000AD
:1004620008087006F0397006880088120330F1001F
:100472009730F000F00B3B2AF10B3B2A402A831203
:1004820003138816081673080F39F000080870065F
:10049200F0397006880088120330F1009730F000BE
:1004A200F00B512AF10B512A562A83120313881694
:1004B2000800831203132008FF3EF4007408F700BB
:1004C2000A128A111E210A128A11F801882A780357
:1004D200FF3A7707831203132107F400740884009C
:1004E200831300080A128A11C7210A128A11F50021
:1004F2007808831203132207F60076088400750831
:10050200831380000130F4007408F807882A8312EC
:10051200031320087802031C8F2A902A682A912A42
:100522000A128A111E210A128A1108008312031369
:100532000813881308120808F0390338880088164F
:10054200C0308316031388008230F500DD30F400DA
:10055200F40BA92AF50BA92AAE2A20300A128A1115
:10056200D6220A128A1128300A128A11D6220A12B7
:100572008A110C300A128A11D6220A128A1101300B
:100582000A128A11D6220A128A1102300A128A111A
:10059200D6220A128A118230F500DD30F400F40B03
:1005A200D02AF50BD02AD52A0800F2007208F000F2
:1005B2007008F300831203130812730E0F39F00050
:1005C20008087006F0397006880088127203031951
:1005D200EB2AEC2AF32A02307206031DF12AF22AD0
:1005E200FD2AF32A0330F1009730F000F00BF72ACE
:1005F200F10BF72AFC2A022B0D30F000F00BFF2A38
:10060200022B8312031388162030720603190A2B59
:100612000B2B342B081273080F39F00008087006F0
:10062200F03970068800881272030319192B1A2BED
:10063200212B02307206031D1F2B202B2B2B212B6B
:100642000330F1009730F000F00B252BF10B252B36
:100652002A2B302B0D30F000F00B2D2B302B831278
:1006620003138816342B0800F801FA0104307A02C9
:10067200031C3C2B3D2B3F2BA82BA82B0130F00059
:100682007A0A452B0310F00DFF3E031D432B700821
:10069200FF3AF100F10E83120313060871060F39B7
:1006A20071068600F90104307902031C592B5A2B7A
:1006B2005C2B9D2B9D2B06080F39F0007009F10071
:1006C200F201F209790AF3000130F4000030F5007A
:1006D2006D2B0310F40DF50DF30B6A2B71087405E5
:1006E200F60072087505F7007608770403197A2B6D
:1006F2007B2B922B7908F00002300310F00DFF3EA5
:10070200031D7E2B01307007F1007A087107840007
:100712000A128A1103200A128A11F2007208F800E2
:10072200922B0130F0007008F90704307902031CA3
:100732009B2B9C2B5C2B9D2B0130F0007008FA0741
:1007420004307A02031CA62BA72B3F2BA82B831263
:1007520003132308F0007008A4007808F000700862
:10076200A300B32B080083120313BE01BB01C10116
:10077200BF01C0010A128A1197220A128A110A12B3
:100782008A1140210A128A113C3083120313B500E8
:100792003508F000F101F10A3D300A128A11F22106
:1007A2000A128A1183120313BC01D72B0A128A116F
:1007B20035230A128A11252E9F2E0A128A115321DD
:1007C2000A128A1183120313B5003508C1004130A1
:1007D2004106031DED2BEE2BF32B6430BF000030DE
:1007E200C0009F2E42304106031DF82BF92BFE2B31
:1007F2006E30BF000030C0009F2E43304106031D03
:10080200032C042C092C7830BF000030C0009F2E2E
:1008120044304106031D0E2C0F2C142C8230BF00D5
:100822000030C0009F2E31304106031D192C1A2CB6
:100832001F2C8C30BF000030C0009F2E323041068A
:10084200031D242C252C2A2C9630BF000030C0001A
:100852009F2E33304106031D2F2C302C352CA03017
:10086200BF000030C0009F2E34304106031D3A2CD9
:100872003B2C402CAA30BF000030C0009F2E3530E8
:100882004106031D452C462C4B2CB430BF000030D2
:10089200C0009F2E36304106031D502C512C562C81
:1008A200BE30BF000030C0009F2E37304106031D0E
:1008B2005B2C5C2C612CC830BF000030C0009F2E26
:1008C20038304106031D662C672C6C2CD230BF00D9
:1008D2000030C0009F2E39304106031D712C722C4E
:1008E200772CDC30BF000030C0009F2E6130410603
:1008F200031D7C2C7D2C822CE630BF000030C00012
:100902009F2E62304106031D872C882C8D2CF030DF
:10091200BF000030C0009F2E63304106031D922CA1
:10092200932C982CFA30BF000030C0009F2E643008
:100932004106031D9D2C9E2C9F2E0430BF000130CA
:10094200C0009F2E9F2E9F2E9F2E9F2E9F2E9F2E4A
:100952009F2E9F2E9F2E9F2E9F2E9F2E9F2E9F2E2D
:100962009F2E9F2E9F2EBC176530BF000030C00007
:100972009F2EBD1CBD2CBE2C9F2E0A30BF00003006
:10098200C0009F2E9F2E3C176F30BF000030C0006A
:100992009F2EBD1DCD2CCE2C9F2E0A30BF000030C5
:1009A200C0009F2E9F2EBC167930BF000030C000C1
:1009B2009F2EBD1EDD2CDE2C9F2E0A30BF00003084
:1009C200C0009F2E9F2E3C168330BF000030C00017
:1009D2009F2EBD1FED2CEE2C9F2E0A30BF00003043
:1009E200C0009F2E9F2E063083120313B7001330D0
:1009F200B600AD30B500B50BFC2CB60BFC2CB70B1A
:100A0200FC2C8D3083120313BF000030C0009F2ED8
:100A12000A30BF000030C0009F2E0B308312031338
:100A2200B7002630B6005D30B500B50B162DB60BFB
:100A3200162DB70B162D973083120313BF0000300B
:100A4200C0009F2E0A30BF000030C0009F2E103021
:100A520083120313B7003930B6000D30B500B50B61
:100A6200302DB60B302DB70B302DA130831203136E
:100A7200BF000030C0009F2E0A30BF000030C0000F
:100A82009F2E153083120313B7004B30B600BD30D2
:100A9200B500B50B4A2DB60B4A2DB70B4A2D512D79
:100AA200AB3083120313BF000030C0009F2E0A3008
:100AB200BF000030C0009F2E1A3083120313B7000C
:100AC2005E30B6006D30B500B50B652DB60B652DE9
:100AD200B70B652D6C2DB53083120313BF000030A8
:100AE200C0009F2E0A30BF000030C0009F2E1F3072
:100AF20083120313B7007130B6001D30B500B50B79
:100B0200802DB60B802DB70B802D872DBF30831221
:100B12000313BF000030C0009F2E0A30BF00003018
:100B2200C0009F2E243083120313B7008330B60017
:100B3200CE30B500B50B9B2DB60B9B2DB70B9B2D65
:100B42000000C93083120313BF000030C0009F2E83
:100B52000A30BF000030C0009F2E293083120313D9
:100B6200B7009630B6007E30B500B50BB62DB60B89
:100B7200B62DB70BB62D0000D33083120313BF007E
:100B82000030C0009F2E0A30BF000030C0009F2EF0
:100B92002E3083120313B700A930B6002E30B500F1
:100BA200B50BD12DB60BD12DB70BD12D0000DD30F9
:100BB20083120313BF000030C0009F2E0A30BF0013
:100BC2000030C0009F2EBC13E730BF000030C000D1
:100BD2009F2E3D1CED2DEE2D9F2E0A30BF000030C2
:100BE200C0009F2E9F2E3C13F130BF000030C0008A
:100BF2009F2E3D1DFD2DFE2D9F2E0A30BF00003081
:100C0200C0009F2E9F2EBC12FB30BF000030C000E0
:100C12009F2E3D1E0D2E0E2E9F2E0A30BF0000303D
:100C2200C0009F2E9F2E3C120530BF000130C00035
:100C32009F2E3D1F1D2E1E2E9F2E0A30BF000030FC
:100C4200C0009F2E9F2E9F2E831203134008003A4E
:100C520003192F2E013A0319972E9F2E3F08003AAF
:100C620003199F2E0A3A0319DE2B6E3A0319B42C8C
:100C7200013A0319BA2C0B3A0319C42C013A03198D
:100C8200CA2C173A0319D42C013A0319DA2CFB3A6D
:100C92000319E42C013A0319EA2C0F3A0319F42C34
:100CA200013A0319092D1B3A03190E2D013A0319B2
:100CB200232D373A0319282D013A03193D2D0B3AFA
:100CC2000319422D013A0319582D1F3A03195D2DBC
:100CD200013A0319732D0B3A0319782D013A0319BE
:100CE2008E2D773A0319932D013A0319A92D1B3A38
:100CF2000319AE2D013A0319C42D0F3A0319C92D58
:100D0200013A0319DF2D3B3A0319E42D013A031985
:100D1200EA2D173A0319F42D013A0319FA2D0B3A69
:100D22000319042E013A03190A2E9F2E3F08043A92
:100D32000319142E013A03191A2E9F2E0A128A1130
:100D420014210A128A11003A0319A82EA92EE72F9C
:100D52000A128A1119210A128A11003A031DB22EAF
:100D6200B32EE72F0A128A1114210A128A11831252
:100D72000313B5003508BE009C2F0130B5003508BD
:100D8200B807381CC52EC62ECD2E3E080A128A116F
:100D920032210A128A11D62F831203133E082038F9
:100DA2000A128A1132210A128A11D62FD62F013045
:100DB20083120313B5003508B907391CE12EE22E60
:100DC200E92E3E080A128A1132210A128A11D62FFE
:100DD200831203133E0820380A128A1132210A12A2
:100DE2008A11D62FD62F013083120313B50035088E
:100DF200BA073A1CFD2EFE2E052F3E080A128A1152
:100E020032210A128A11D62F831203133E08203888
:100E12000A128A1132210A128A11D62FD62F0130D4
:100E220083120313B5003508BB073B1C192F1A2F79
:100E3200212F3E080A128A1132210A128A11D62F54
:100E4200831203133E0820380A128A1132210A1231
:100E52008A11D62FD62F10300A128A1182210A1235
:100E62008A110A128A1123210A128A118312031388
:100E7200BB01BA01B901B801D62F462F462F462F22
:100E8200462F462F462F462F462F3E080A128A111A
:100E920032210A128A11D62F652F83120313B80149
:100EA2008E2FB801B80A8E2FB9018E2FB901B90A57
:100EB2008E2FBA018E2FBA01BA0A8E2FBB018E2F46
:100EC200BB01BB0A8E2F8E2F01300A128A1182219A
:100ED2000A128A1183120313B500B6013608003ACA
:100EE2000319742F8E2F3508413A03194E2F033AF6
:100EF2000319552F013A03195A2F073A03195F2F85
:100F0200253A0319522F033A0319572F013A0319AD
:100F12005C2F073A0319612F8E2F0A128A1123219F
:100F22000A128A11D62F0A3083120313BF0000302F
:100F3200C000D62FD62F3E08B500B6013608003ABB
:100F42000319A42FD62F3508233A0319942F093AEF
:100F52000319652F1A3A03192C2F013A0319462F48
:100F6200033A0319462F013A0319462F073A031988
:100F7200462F013A0319462F033A0319462F013A25
:100F82000319462F0F3A0319462F013A0319462F28
:100F9200783A0319BE2E033A0319D82E013A0319DF
:100FA200F42E073A0319102FD62FF8010A128A11CC
:100FB20011210A128A1183120313B5003508F900B0
:100FC20000300A128A11A3210A128A110A128A1106
:100FD2005A220A128A11D72BD72B0A128A110028F9
:100FE200FC01FD0183132030840035300A128A117E
:0E0FF2002A210A128A1183010A128A11B42BD5
:02400E00D4EFED
:00000001FF
