:020000040000FA
:100000000A128A11E72FFF1B0D2883137F1883170D
:100010000008840A0319FF0A080000308A00040857
:10002000840A820700343134323433344134343476
:1000300035343634423437343834393443342A345E
:100040003034233444340034033407340B340E3456
:10005000053449344E345334493452344134203415
:1000600041342034533445345134553445344E34BE
:100070002E340034533445345134553445344E34E1
:1000800043344934413444344F34523400345034CE
:1000900052344F344734523441344D344134563461
:0600A00045344C3400342D
:1003EC00263008008312031323080800831203131A
:1003FC002408080001300A128A11242408008312F0
:10040C00031385118515080064008001840A040615
:10041C000319003404060B2A10300A128A117E22AA
:10042C00FD0183120313A5010800F8011730F90030
:10043C008030FA0000300A128A11E0220800F10024
:10044C007108F0007D08263E84007008831380003C
:10045C000130F0007008FD0708007E088A007F0854
:10046C00820033220A128A118000840A04087D0655
:10047C0003190034FF0A0319FE0A372A20342034EA
:10048C0020342034203420345B34203420345D3448
:10049C002034203420342034203420340034FF30F5
:1004AC008312031386008316031789010F308316FA
:1004BC0003138600FF309500811383120313A401EC
:1004CC00A3010800F7003F307705F5007408F6002B
:1004DC0005300310F60DFF3E031D6F2A0310760D39
:1004EC00FF3A013E803875070A128A11242408004D
:1004FC00F100932A7D080319962A0130FD027D082C
:10050C00263E840083130008F0007008F2007D087A
:10051C00263E840080010130F1027108031D802AFF
:10052C0072080800F1008030F0007008F300F2014E
:10053C0073080319B52A8312031305117108730587
:10054C000319AA2A0514AB2A0510851CB12A7308B5
:10055C00F0007008F20405150310F30C9E2A8312A8
:10056C000313051172080800F10183120313250807
:10057C007D060319CE2A2508263E84008313000825
:10058C00F0007008F1000130F0007008A507DE2AB9
:10059C007D08F0007008A50025080319DE2AA501C6
:1005AC002508263E840083130008F0007008F10033
:1005BC0071080800FC007808FB007B08F4007C083C
:1005CC000A128A1168220A128A117A0883120313FA
:1005DC00FF00790884000A128A1103200A128A117A
:1005EC00003A031908007A08FF00790884000A12FF
:1005FC008A1103200A128A110A128A1142230A1242
:10060C008A110130F9070318FA0A0030FA07EB2AAD
:10061C00F3007308F200720883120313A20070082F
:10062C00F2007208A1007108F2007208A000851196
:10063C008316031788118316031385118312031372
:10064C000511831603170811831603130511831262
:10065C0003130510831603170810831603130510D4
:10066C008316031788108316031385148312031340
:10067C000511051085150800F2007208F0007008CD
:10068C00F300831203130816730E0F39F0000808D9
:10069C007006F0397006880088120330F10097302C
:1006AC00F000F00B572BF10B572B5C2B8312031321
:1006BC008816081673080F39F00008087006F03910
:1006CC007006880088120330F1009730F000F00BB0
:1006DC006D2BF10B6D2B722B8312031388160800F4
:1006EC00831203132008FF3EF4007408F8000A126A
:1006FC008A1105220A128A11F901831203132008A8
:10070C0079020318A92B2108F4007908F40278085F
:10071C007407F50075088400831300080A128A1107
:10072C0098220A128A11F600790883120313220701
:10073C00F700770884007608831380000130F400FA
:10074C007408F907832B0A128A1105220800F80194
:10075C002830F9008030FA0002300A128A11E022A7
:10076C000A128A11023083120313C9000430C80024
:10077C00B930C700C70BC02BC80BC02BC90BC02B83
:10078C00C72BF801F80A3530F9008030FA00023036
:10079C000A128A11E0220A128A110B3083120313F7
:1007AC00C9002630C8005D30C700C70BDB2BC80B57
:1007BC00DB2BC90BDB2B0A128A11002208008312D7
:1007CC0003130813881308120808F039033888003B
:1007DC008816C0308316031388008230F500DD3094
:1007EC00F400F40BF72BF50BF72BFC2B20300A1233
:1007FC008A1124240A128A1128300A128A112424FC
:10080C000A128A110C300A128A1124240A128A1133
:10081C0001300A128A1124240A128A1102300A1297
:10082C008A1124240A128A118230F500DD30F4007A
:10083C00F40B1E2CF50B1E2C232C0800F200720856
:10084C00F0007008F300831203130812730E0F39B3
:10085C00F00008087006F0397006880088127203E0
:10086C0003193C2C02307206031D462C0330F10098
:10087C009730F000F00B402CF10B402C452C4A2CFF
:10088C000D30F000F00B482C831203138816203027
:10089C00720603190800081273080F39F0000808D3
:1008AC007006F03970068800881272030319622CE6
:1008BC0002307206031D6C2C0330F1009730F000EF
:1008CC00F00B662CF10B662C6B2C702C0D30F000A1
:1008DC00F00B6E2C8312031388160800F801FA0132
:1008EC0004307A020318CF2C0130F0007A0A802CE5
:1008FC000310F00DFF3E031D7E2C7008FF3AF10033
:10090C00F10E83120313060871060F397106860067
:10091C00F90106080F39F0007009F100F201F20933
:10092C00790AF3000130F4000030F500A02C03101C
:10093C00F40DF50DF30B9D2C71087405F60072087F
:10094C007505F700760877040319C22C7908F000B6
:10095C0002300310F00DFF3E031DAF2C0130700769
:10096C00F1007A08710784000A128A110D200A120C
:10097C008A11F2007208F8000130F0007008F907D3
:10098C0004307902031C8F2C0130F0007008FA0738
:10099C00762C831203132308F0007008A400780847
:1009AC00F0007008A300080083120313D001D601D5
:1009BC00D401D5010A128A11E5230A128A110A12EE
:1009CC008A11AD230A128A110A128A1155220A12AF
:1009DC008A11513083120313CA004A08F000F10146
:1009EC00F10A52300A128A110E230A128A1183124A
:1009FC000313D1010A128A1174240A128A110A12E1
:100A0C008A111B220A128A11492E0A128A11BA2241
:100A1C000A128A1183120313CA004A08D600413005
:100A2C005606031D1B2D64303A2E42305606031D0C
:100A3C00212D6E303A2E43305606031D272D78306B
:100A4C003A2E44305606031D2D2D82303A2E31306D
:100A5C005606031D332D8C303A2E32305606031DAC
:100A6C00392D96303A2E33305606031D3F2DA030CB
:100A7C003A2E34305606031D452DAA303A2E353009
:100A8C005606031D4B2DB4303A2E36305606031D38
:100A9C00512DBE303A2E37305606031D572DC83017
:100AAC003A2E38305606031D5D2DD2303A2E393091
:100ABC005606031D632DDC303A2E61305606031D9D
:100ACC00692DE6303A2E62305606031D6F2DF0303C
:100ADC003A2E63305606031D752DFA303A2E6430CB
:100AEC005606031DC32E0430422E511465303A2E87
:100AFC00D21CC32E0A303A2ED1146F303A2ED21992
:100B0C00802DC32E511579303A2ED21A802DC32E3A
:100B1C00D11583303A2ED21B802DC32E0630831272
:100B2C000313CC001330CB00AD30CA00CA0B9C2D84
:100B3C00CB0B9C2DCC0B9C2D8D30292E0B30831286
:100B4C000313CC002630CB005D30CA00CA0BAC2D91
:100B5C00CB0BAC2DCC0BAC2D9730292E1030831237
:100B6C000313CC003930CB000D30CA00CA0BBC2D9E
:100B7C00CB0BBC2DCC0BBC2DA130292E15308312E8
:100B8C000313CC004B30CB00BD30CA00CA0BCC2DAC
:100B9C00CB0BCC2DCC0BCC2DD32DAB30292E1A302E
:100BAC0083120313CC005E30CB006D30CA00CA0B2D
:100BBC00DD2DCB0BDD2DCC0BDD2DE42DB530292E11
:100BCC001F3083120313CC007130CB001D30CA00D0
:100BDC00CA0BEE2DCB0BEE2DCC0BEE2DF52DBF3025
:100BEC00292E243083120313CC008330CB00CE305B
:100BFC00CA00CA0BFF2DCB0BFF2DCC0BFF2D000019
:100C0C00C930292E293083120313CC009630CB0027
:100C1C007E30CA00CA0B102ECB0B102ECC0B102E14
:100C2C000000D330292E2E3083120313CC00A930B0
:100C3C00CB002E30CA00CA0B212ECB0B212ECC0B95
:100C4C00212E0000DD30831203133A2E5110E730B1
:100C5C003A2E5218802DC32ED110F1303A2E521943
:100C6C00802DC32E5111FB30D4000030442E521A6B
:100C7C00802DC32ED1110530D4000130D500C32EE8
:100C8C00521B802DC32E831203135508003A0319EF
:100C9C00532E013A0319BB2EC32E5408003A0319E4
:100CAC00C32E0A3A03190B2D6E3A03197B2D013A08
:100CBC0003197E2D0B3A0319822D013A0319852D48
:100CCC00173A0319882D013A03198B2DFB3A031996
:100CDC008E2D013A0319912D0F3A0319942D013AD7
:100CEC000319802D1B3A0319A42D013A0319802DE9
:100CFC00373A0319B42D013A0319802D0B3A031915
:100D0C00C42D013A0319802D1F3A0319D52D013A30
:100D1C000319802D0B3A0319E62D013A0319802D86
:100D2C00773A0319F72D013A0319802D1B3A031951
:100D3C00082E013A0319802D0F3A0319192E013A86
:100D4C000319802D3B3A03192C2E013A03192F2E2F
:100D5C00173A0319322E013A0319352E0B3A03199F
:100D6C00382E013A03193D2EC32E5408043A0319A8
:100D7C00402E013A0319462EC32E0A128A11F8216D
:100D8C000A128A11003A0319E12F0A128A11FC2166
:100D9C000A128A11003A031DE12F0A128A11F82156
:100DAC000A128A1183120313CA004A08D300972F20
:100DBC000130CA004A08CD074D1CEB2E53080A120D
:100DCC008A1125220A128A11D12F530820380A12AF
:100DDC008A1125220A128A11D12F0130CA004A0821
:100DEC00CE074E1C002F53080A128A1125220A1214
:100DFC008A11D12F530820380A128A1125220A127F
:100E0C008A11D12F0130CA004A08CF074F1C152F69
:100E1C0053080A128A1125220A128A11D12F53085B
:100E2C0020380A128A1125220A128A11D12F013078
:100E3C00CA004A08D007501C2A2F53080A128A11DC
:100E4C0025220A128A11D12F530820380A128A112E
:100E5C0025220A128A11D12F0A128A1100220A1293
:100E6C008A1183120313D001CF01CE01CD01D10120
:100E7C000A128A1112220A128A1183120313D40144
:100E8C00D501D12F53080A128A1125220A128A1170
:100E9C00D12FCD018C2FCD01CD0A8C2FCE018C2FD3
:100EAC00CE01CE0A8C2FCF018C2FCF01CF0A8C2FE5
:100EBC00D0018C2FD001D00A8C2F01300A128A114C
:100ECC007E220A128A1183120313CA00CB014B082B
:100EDC00003A0319722F8C2F4A08413A03194F2FED
:100EEC00033A0319542F013A0319592F073A0319DE
:100EFC005E2F253A0319512F033A0319562F013A45
:100F0C0003195B2F073A0319602F8C2F0A128A11D1
:100F1C0000220A128A11D12F0A30D4000030D500D9
:100F2C00D12F5308CA00CB014B08003A03199F2F4D
:100F3C00D12F4A08233A0319922F093A0319632F28
:100F4C001A3A0319322F013A0319482F033A03199D
:100F5C00482F013A0319482F073A0319482F013A31
:100F6C000319482F033A0319482F013A0319482F44
:100F7C000F3A0319482F013A0319482F783A0319ED
:100F8C00DE2E033A0319F32E013A0319082F073A00
:100F9C0003191D2FD12FF801F80A0A128A11F62114
:100FAC000A128A11F9000030FA0000300A128A1174
:100FBC00E0220A128A110A128A1176230A128A1165
:100FCC00002D83134730FD000230FE004430FF003B
:100FDC00363084000A128A1137220A128A11203004
:100FEC00840036300A128A110A22FD0183010A128A
:040FFC008A11DA2C50
:02400E00D4EFED
:00000001FF
