:020000040000FA
:100000000A128A11E52FFF1B0D2883137F1883170F
:100010000008840A0319FF0A080000308A00040857
:10002000840A820700343134323433344134343476
:1000300035343634423437343834393443342A345E
:100040003034233444340034033407340B340E3456
:10005000053449344E345334493452344134203415
:1000600041342034533445345134553445344E34BE
:100070002E340034533445345134553445344E34E1
:1000800043344934413444344F34523400345034CE
:1000900052344F344734523441344D344134563461
:0600A00045344C3400342D
:1000E2002630732808008312031323087828080097
:1000F2008312031324087D28080083120313851139
:100102008515080001300A128A11BC220A128A11CE
:10011200080064008001840A0406031900340406FE
:100122008B2810300A128A111F210A128A11FD012E
:1001320083120313A5010800F8011730F90080307B
:10014200FA0000300A128A116B210A128A11080081
:10015200F1007108F0007D08263E840070088313C8
:1001620080000130F0007008FD07080020342034C0
:1001720020342034203420345B34203420345D3465
:100182002034203420342034203420340034FF3012
:100192008312031386008316031789010F30831617
:1001A20003138600FF309500811383120313A40109
:1001B200A30108007E088A007F0882000A128A11C1
:1001C200DB200A128A118000840A04087D060319C2
:1001D2000034FF0A0319FE0ADF28F7003F307705D3
:1001E200F5007408F60005300310F60DFF3E031DFE
:1001F200F5280310760DFF3A013E803875070A1282
:100202008A11BC220A128A110800F1018312031317
:1002120025087D0603190E290F291C292508263ECB
:10022200840083130008F0007008F1000130F00030
:100232007008A5071C2971081E290800F100312940
:100242000130FD027D08263E840083130008F00081
:100252007008F2007D08263E840080010130F10220
:1002620071080319352936293D297D08031D3A29CC
:100272003B2921293D293D2972083F290800F10027
:100282008030F0007008F300F2016029831203133A
:1002920005117108730503194F29502952290514B4
:1002A20053290510851C562957295C297308F0002B
:1002B2007008F2045C2905150310F30C6029730819
:1002C200031D642965294729831203130511720846
:1002D2006A290800FC007808FB007B08F4007C080F
:1002E2000A128A11EE200A128A118C297A088312C4
:1002F2000313FF00790884000A128A1103200A12EC
:100302008A110A128A11D2210A128A110130F907BE
:100312000318FA0A8C297A0883120313FF0079085A
:1003220084000A128A1103200A128A11003A031D5C
:100332009B299C2977299D290800F3007308F20064
:10034200720883120313A2007008F2007208A1005F
:100352007108F2007208A000851183160317881134
:1003620083160313851183120313051183160317D2
:100372000811831603130511831203130510831644
:10038200031708108316031305108316031788102A
:1003920083160313851483120313051105108515A3
:1003A2000800F2007208F0007008F30083120313D1
:1003B2000816730E0F39F00008087006F03970063F
:1003C200880088120330F1009730F000F00BE72923
:1003D200F10BE729EC298312031388160816730818
:1003E2000F39F00008087006F0397006880088128C
:1003F2000330F1009730F000F00BFD29F10BFD29DD
:10040200022A8312031388160800F8012830F90023
:100412008030FA0002300A128A116B210A128A1104
:10042200023083120313C9000430C800B930C70078
:10043200C70B192AC80B192AC90B192A202AF80135
:10044200F80A3530F9008030FA0002300A128A11B7
:100452006B210A128A110B3083120313C900263052
:10046200C8005D30C700C70B342AC80B342AC90B39
:10047200342A0A128A1183200A128A11080083126E
:1004820003132008FF3EF4007408F7000A128A11D1
:100492007E200A128A11F8016E2A7803FF3A770742
:1004A200831203132107F4007408840083130008E5
:1004B2000A128A1140210A128A11F5007808831261
:1004C20003132207F6007608840075088313800060
:1004D2000130F4007408F8076E2A8312031320080F
:1004E2007802031C752A762A4E2A772A0A128A1162
:1004F2007E200A128A11080083120313081388133C
:1005020008120808F039033888008816C0308316AC
:10051200031388008230F500DD30F400F40B8F2ADB
:10052200F50B8F2A942A20300A128A11BC220A1251
:100532008A1128300A128A11BC220A128A110C303E
:100542000A128A11BC220A128A1101300A128A1175
:10055200BC220A128A1102300A128A11BC220A1221
:100562008A118230F500DD30F400F40BB62AF50B67
:10057200B62ABB2A0800F2007208F0007008F300E5
:10058200831203130812730E0F39F0000808700665
:10059200F03970068800881272030319D12AD22A10
:1005A200D92A02307206031DD72AD82AE32AD92A69
:1005B2000330F1009730F000F00BDD2AF10BDD2A59
:1005C200E22AE82A0D30F000F00BE52AE82A83122D
:1005D20003138816203072060319F02AF12A1A2B07
:1005E200081273080F39F00008087006F039700617
:1005F2008800881272030319FF2A002B072B02308E
:100602007206031D052B062B112B072B0330F1005D
:100612009730F000F00B0B2BF10B0B2B102B162B42
:100622000D30F000F00B132B162B831203138816D8
:100632001A2B0800F801FA0104307A02031C222B5B
:10064200232B252B8E2B8E2B0130F0007A0A2B2B9D
:100652000310F00DFF3E031D292B7008FF3AF10035
:10066200F10E83120313060871060F397106860014
:10067200F90104307902031C3F2B402B422B832BC0
:10068200832B06080F39F0007009F100F201F2091C
:10069200790AF3000130F4000030F500532B031007
:1006A200F40DF50DF30B502B71087405F60072086A
:1006B2007505F700760877040319602B612B782BF8
:1006C2007908F00002300310F00DFF3E031D642B89
:1006D20001307007F1007A08710784000A128A114A
:1006E2000D200A128A11F2007208F800782B0130EC
:1006F200F0007008F90704307902031C812B822B69
:10070200422B832B0130F0007008FA0704307A0282
:10071200031C8C2B8D2B252B8E2B8312031323086A
:10072200F0007008A4007808F0007008A300992B6C
:10073200080083120313D301D001D601D401D501DD
:100742000A128A117D220A128A110A128A110622BB
:100752000A128A110A128A11C8200A128A11513009
:1007620083120313CA004A08F000F101F10A523061
:100772000A128A119E210A128A1183120313D101CD
:10078200C22B0A128A111B230A128A110A128A1117
:100792009D200A128A11152E8F2E0A128A11062105
:1007A2000A128A1183120313CA004A08D600413082
:1007B2005606031DDD2BDE2BE32B6430D400003004
:1007C200D5008F2E42305606031DE82BE92BEE2B67
:1007D2006E30D4000030D5008F2E43305606031DF4
:1007E200F32BF42BF92B7830D4000030D5008F2E68
:1007F20044305606031DFE2BFF2B042C8230D400FE
:100802000030D5008F2E31305606031D092C0A2CDC
:100812000F2C8C30D4000030D5008F2E323056068B
:10082200031D142C152C1A2C9630D4000030D50040
:100832008F2E33305606031D1F2C202C252CA03062
:10084200D4000030D5008F2E34305606031D2A2CDA
:100852002B2C302CAA30D4000030D5008F2E35300E
:100862005606031D352C362C3B2CB430D4000030F8
:10087200D5008F2E36305606031D402C412C462CB7
:10088200BE30D4000030D5008F2E37305606031DFF
:100892004B2C4C2C512CC830D4000030D5008F2E5C
:1008A20038305606031D562C572C5C2CD230D400FF
:1008B2000030D5008F2E39305606031D612C622C74
:1008C200672CDC30D4000030D5008F2E6130560604
:1008D200031D6C2C6D2C722CE630D4000030D50038
:1008E2008F2E62305606031D772C782C7D2CF0302B
:1008F200D4000030D5008F2E63305606031D822CA3
:10090200832C882CFA30D4000030D5008F2E64302E
:100912005606031D8D2C8E2C8F2E0430D4000130F0
:10092200D5008F2E8F2E8F2E8F2E8F2E8F2E8F2EC5
:100932008F2E8F2E8F2E8F2E8F2E8F2E8F2E8F2ECD
:100942008F2E8F2E8F2E51146530D4000030D5009B
:100952008F2ED21CAD2CAE2C8F2E0A30D40000303C
:10096200D5008F2E8F2ED1146F30D4000030D500D9
:100972008F2ED21DBD2CBE2C8F2E0A30D4000030FB
:10098200D5008F2E8F2E51157930D4000030D5002E
:100992008F2ED21ECD2CCE2C8F2E0A30D4000030BA
:1009A200D5008F2E8F2ED1158330D4000030D50084
:1009B2008F2ED21FDD2CDE2C8F2E0A30D400003079
:1009C200D5008F2E8F2E063083120313CC001330E6
:1009D200CB00AD30CA00CA0BEC2CCB0BEC2CCC0BF1
:1009E200EC2C8D3083120313D4000030D5008F2EEF
:1009F2000A30D4000030D5008F2E0B30831203133F
:100A0200CC002630CB005D30CA00CA0B062DCB0BC2
:100A1200062DCC0B062D973083120313D400003021
:100A2200D5008F2E0A30D4000030D5008F2E103022
:100A320083120313CC003930CB000D30CA00CA0B2D
:100A4200202DCB0B202DCC0B202DA1308312031394
:100A5200D4000030D5008F2E0A30D4000030D500EB
:100A62008F2E153083120313CC004B30CB00BD30D8
:100A7200CA00CA0B3A2DCB0B3A2DCC0B3A2D412D85
:100A8200AB3083120313D4000030D5008F2E0A300E
:100A9200D4000030D5008F2E1A3083120313CC00FD
:100AA2005E30CB006D30CA00CA0B552DCB0B552DD5
:100AB200CC0B552D5C2DB53083120313D4000030BE
:100AC200D5008F2E0A30D4000030D5008F2E1F3073
:100AD20083120313CC007130CB001D30CA00CA0B45
:100AE200702DCB0B702DCC0B702D772DBF30831258
:100AF2000313D4000030D5008F2E0A30D40000300A
:100B0200D5008F2E243083120313CC008330CB0008
:100B1200CE30CA00CA0B8B2DCB0B8B2DCC0B8B2D61
:100B22000000C93083120313D4000030D5008F2E89
:100B32000A30D4000030D5008F2E293083120313DF
:100B4200CC009630CB007E30CA00CA0BA62DCB0B50
:100B5200A62DCC0BA62D0000D33083120313D40094
:100B62000030D5008F2E0A30D4000030D5008F2EF1
:100B72002E3083120313CC00A930CB002E30CA00D2
:100B8200CA0BC12DCB0BC12DCC0BC12D0000DD300A
:100B920083120313D4000030D5008F2E0A30D40004
:100BA2000030D5008F2E5110E730D4000030D50030
:100BB2008F2E521CDD2DDE2D8F2E0A30D4000030F8
:100BC200D5008F2E8F2ED110F130D4000030D500F9
:100BD2008F2E521DED2DEE2D8F2E0A30D4000030B7
:100BE200D5008F2E8F2E5111FB30D4000030D5004E
:100BF2008F2E521EFD2DFE2D8F2E0A30D400003076
:100C0200D5008F2E8F2ED1110530D4000130D500A2
:100C12008F2E521F0D2E0E2E8F2E0A30D400003032
:100C2200D5008F2E8F2E8F2E831203135508003A74
:100C320003191F2E013A0319872E8F2E5408003AEA
:100C420003198F2E0A3A0319CE2B6E3A0319A42CDC
:100C5200013A0319AA2C0B3A0319B42C013A0319CD
:100C6200BA2C173A0319C42C013A0319CA2CFB3ABD
:100C72000319D42C013A0319DA2C0F3A0319E42C84
:100C8200013A0319F92C1B3A0319FE2C013A0319F4
:100C9200132D373A0319182D013A03192D2D0B3A4A
:100CA2000319322D013A0319482D1F3A03194D2D0C
:100CB200013A0319632D0B3A0319682D013A0319FE
:100CC2007E2D773A0319832D013A0319992D1B3A88
:100CD20003199E2D013A0319B42D0F3A0319B92DA8
:100CE200013A0319CF2D3B3A0319D42D013A0319C6
:100CF200DA2D173A0319E42D013A0319EA2D0B3ABA
:100D02000319F42D013A0319FA2D8F2E5408043ACF
:100D12000319042E013A03190A2E8F2E0A128A1180
:100D220074200A128A11003A0319982E992EDB2F89
:100D32000A128A1179200A128A11003A031DA22E80
:100D4200A32EDB2F0A128A1174200A128A1183122F
:100D52000313CA004A08D300902F0130CA004A0880
:100D6200CD074D1CB52EB62EBD2E53080A128A1180
:100D7200A9200A128A11CA2F83120313530820389A
:100D82000A128A11A9200A128A11CA2FCA2F013007
:100D920083120313CA004A08CE074E1CD12ED22E4C
:100DA200D92E53080A128A11A9200A128A11CA2FAF
:100DB20083120313530820380A128A11A9200A1237
:100DC2008A11CA2FCA2F013083120313CA004A089C
:100DD200CF074F1CED2EEE2EF52E53080A128A1164
:100DE200A9200A128A11CA2F83120313530820382A
:100DF2000A128A11A9200A128A11CA2FCA2F013097
:100E020083120313CA004A08D007501C092F0A2F65
:100E1200112F53080A128A11A9200A128A11CA2F05
:100E220083120313530820380A128A11A9200A12C6
:100E32008A11CA2FCA2F0A128A1183200A128A1112
:100E420083120313D001CF01CE01CD01D1010A12C9
:100E52008A1192200A128A1183120313D401D50136
:100E6200CA2F3A2F3A2F3A2F3A2F3A2F3A2F3A2FA8
:100E72003A2F53080A128A11A9200A128A11CA2F7C
:100E8200592F83120313CD01822FCD01CD0A822F58
:100E9200CE01822FCE01CE0A822FCF01822FCF0127
:100EA200CF0A822FD001822FD001D00A822F822F27
:100EB20001300A128A111F210A128A1183120313A6
:100EC200CA00CB014B08003A0319682F822F4A0847
:100ED200413A0319422F033A0319492F013A0319E0
:100EE2004E2F073A0319532F253A0319462F033A77
:100EF20003194B2F013A0319502F073A0319552FA3
:100F0200822F0A128A1183200A128A11CA2F0A30EA
:100F120083120313D4000030D500CA2FCA2F5308FE
:100F2200CA00CB014B08003A0319982FCA2F4A086E
:100F3200233A0319882F093A0319592F1A3A031928
:100F42001C2F013A03193A2F033A03193A2F013A97
:100F520003193A2F073A03193A2F013A03193A2F84
:100F6200033A03193A2F013A03193A2F0F3A031998
:100F72003A2F013A03193A2F783A0319AE2E033A5F
:100F82000319C82E013A0319E42E073A0319002F58
:100F9200CA2FF801F80A0A128A1171200A128A115C
:100FA200F9000030FA0000300A128A116B210A128D
:100FB2008A11DB2F0A128A1140220A128A11C22BCD
:100FC200C22B0A128A11002883134730FD00003019
:100FD200FE00B730FF00363084000A128A11DF208B
:100FE2000A128A112030840036300A128A118A20AD
:0E0FF2000A128A11FD0183010A128A119A2B3C
:02400E00D4EFED
:00000001FF
