:060000000A128A110C280F
:10000800FE00030EF0000A08F1000A128A11FA2C09
:100018000A128A110F2883135430FD000530FE00A0
:100028007330FF00433084000A128A1151250A12E6
:100038008A112030840043300A128A1193250A124B
:100048008A11FA01FB0183010A128A11912A642993
:10005800B4290A128A111C250A128A11F800F9011A
:10006800780883120313A2007908A3000B30F80064
:100078007808AA00B4298F286430F8007808AA0004
:10008800B4296E30F8007808AA00B4297830F8004E
:100098007808AA00B4298230F8007808AA00B429A0
:1000A800E630F8007808AA00B429F030F80078089B
:1000B800AA00B429FA30F8007808AA00B429043054
:1000C800F8007808AA00B4297028702870287028C9
:1000D80070287028702870282208D03EF200230863
:1000E8000318013EFF3EF300E830F4000330F5004A
:1000F8000A128A11D2240A128A117308831203136E
:10010800A1007208A0008C30F8007808AA00B42971
:10011800AA01B429B4292308003A031994288C2881
:100128002208313A03197028033A03197028013A52
:1001380003197028073A03197028013A031970281F
:10014800033A03197028013A031970280F3A031962
:100158007028013A03197028783A03194028033A9D
:1001680003194528013A03194A28073A03194F2861
:10017800253A03195428033A03195928013A03194F
:100188005E28073A031963288C28B429411465307E
:10019800F8007808AA00B429C21CD328D428B429A6
:1001A8000A30F8007808AA00B429B4294110E730C9
:1001B800F8007808AA00B429421CE328E428B429E6
:1001C8000A30F8007808AA00B429B429C1146F309D
:1001D800F8007808AA00B429C21DF328F428B42925
:1001E8000A30F8007808AA00B429B429C110F130FF
:1001F800F8007808AA00B429421D03290429B42963
:100208000A30F8007808AA00B429B42941157930D1
:10021800F8007808AA00B429C21E13291429B429A1
:100228000A30F8007808AA00B429B4294111FB3033
:10023800F8007808AA00B429421E23292429B429E1
:100248000A30F8007808AA00B429B429C115833007
:10025800F8007808AA00B4290A30F8007808AA003B
:10026800B429C1110530F8007808AA00B4290A3069
:10027800F8007808AA00B4292108F3002008F20041
:100288000A128A11A3250A128A118D30F8007808FB
:1002980083120313AA00B4290A128A119B250A1291
:1002A8008A1172087304031D5A295B29B4290A307C
:1002B800F800780883120313AA00B429B429B429D2
:1002C800831203132A08F800F9017908003A031980
:1002D8007129013A0319AC29B4297808003A03199D
:1002E800B4290A3A03192D28013A03198F286F3ABD
:1002F8000319CA28013A0319D0280B3A0319EA2826
:10030800013A0319F028173A03190A29013A03197F
:100318001029FB3A03192A29013A031930290F3AFF
:1003280003194029013A031950296B3A0319DA28AD
:10033800013A0319E028173A0319FA28013A031970
:1003480000290B3A03191A29013A03192029B4295B
:100358007808043A03193529013A03193B29B429C5
:10036800080083120313D401D60104305602031C7B
:10037800BE29BF29C129282A282A0130F200560A95
:10038800C7290310F20DFF3E031DC5297208FF3A65
:10039800F300F30E060873060F3973068600D501BD
:1003A80004305502031CD929DA29DC291D2A1D2A03
:1003B80006080F39F2007209F300F401F409550A2E
:1003C800F5000130F6000030F700ED290310F60DB6
:1003D800F70DF50BEA2973087605F8007408770518
:1003E800F900780879040319FA29FB29122A550813
:1003F800F20002300310F20DFF3E031DFE2901300A
:100408007207F3005608730784000A128A110A2338
:100418000A128A11F4007408D400122A0130F2007A
:100428007208D50704305502031C1B2A1C2ADC2934
:100438001D2A0130F2007208D60704305602031C48
:10044800262A272AC129282A2E08F2007208AF0076
:100458005408F2007208AE00312A0800F40074084B
:10046800F2007208F500831203130812750E0F3993
:10047800F20008087206F0397206880088127403C0
:100488000319472A482A4F2A02307406031D4D2AA9
:100498004E2A592A4F2A0330F3009730F200F20B04
:1004A800532AF30B532A582A5E2A0D30F200F20B16
:1004B8005B2A5E2A831203138816203074060319F8
:1004C800662A672A902A081275080F39F200080868
:1004D8007206F03972068800881274030319752AA7
:1004E800762A7D2A02307406031D7B2A7C2A872AF5
:1004F8007D2A0330F3009730F200F20B812AF30BC8
:10050800812A862A8C2A0D30F200F20B892A8C2A3D
:10051800831203138816902A080083120313DD013F
:100528000A128A1150230A128A110A128A118F2379
:100538000A128A110A128A1160250A128A11413098
:1005480083120313DC005C08F200F301F30A423063
:100558000A128A1173240A128A110A128A1184252E
:100568000A128A11B72A0A128A11B5210A128A11A7
:100578000A128A11BC250A128A11003A0319C52ADF
:10058800C62ADB2A0A128A11B7250A128A11003AEA
:10059800031DCF2AD02ADB2A0A128A11BC250A1287
:1005A8008A1183120313DC005C08DD00DB2A0A12BF
:1005B8008A112B200A128A110A128A11CD230A12D3
:0C05C8008A11B72AB72A0A128A110C28DF
:10060000FF1B0A2B83137F1883170008840A031922
:10061000FF0A080003308A000408840A82070034B5
:100620003134323433344134343435343634423472
:1006300037343834393443342A343034233444346E
:100640000034033407340B340E34053449344E344B
:1006500053344934523441342034413420345334F7
:1006600045345134553445344E342E3400345334EB
:1006700045345134553445344E344334493441348F
:1006800044344F3452340034503452344F344734AD
:10069000523441344D344134563445344C340034B2
:1006A000831203130813881308120808F03903385B
:1006B00088008816C0308316031388008230F70044
:1006C000DD30F600F60B622BF70B622B672B203028
:1006D0000A128A1132220A128A1128300A128A1149
:1006E00032220A128A110C300A128A1132220A129C
:1006F0008A1101300A128A1132220A128A1102303A
:100700000A128A1132220A128A118230F700DD3071
:10071000F600F60B892BF70B892B8E2B0800831222
:100720000313D4012830D5008030D60002300A12DD
:100730008A1108240A128A11023083120313DB0083
:100740000430DA00B930D900D90BA42BDA0BA42B72
:10075000DB0BA42BAB2B83120313D401D40A35304B
:10076000D5008030D60002300A128A1108240A12FD
:100770008A110B3083120313DB002630DA005D3060
:10078000D900D90BC12BDA0BC12BDB0BC12B0A1201
:100790008A11AB250A128A110800831203132B0851
:1007A000FF3EF6007608D4000A128A11B2250A121A
:1007B0008A1183120313D501FB2B5503FF3A54070B
:1007C0002C07F60076088400831300080A128A11A9
:1007D000A7240A128A11F7008312031355082D0764
:1007E000F800780884007708831380000130F60051
:1007F0007608D507FB2B2B085502031C002C012C77
:10080000DD2B022C0A128A11B2250A128A11080065
:1008100083120313D8005408D7005708F60058086D
:100820000A128A1135250A128A112D2C83120313FC
:100830005608FF00550884000A128A1100230A1284
:100840008A110A128A113F240A128A110130831276
:100850000313D5070318D60A2D2C83120313560849
:10086000FF00550884000A128A1100230A128A1117
:10087000003A031D3C2C3D2C162C3E2C0800F400A5
:100880007408F2007208F500831203130816750E3F
:100890000F39F20008087206F039720688008812D3
:1008A0000330F3009730F200F20B542CF30B542C6E
:1008B000592C831203138816081675080F39F20095
:1008C00008087206F0397206880088120330F300B7
:1008D0009730F200F20B6A2CF30B6A2C6F2C831208
:1008E000031388160800F5007508F40074088312D5
:1008F0000313AD007208F4007408AC007308F40030
:100900007408AB008511831603178811831603132F
:10091000851183120313051183160317081183161B
:100920000313051183120313051083160317081010
:1009300083160313051083160317881083160313F9
:100940008514831203130511051085150800F300A3
:100950008030F2007208F500F401C72C83120313F3
:100960000511730875050319B62CB72CB92C05149D
:10097000BA2C0510851CBD2CBE2CC32C7508F200AA
:100980007208F404C32C05150310F50CC72C750868
:10099000031DCB2CCC2CAE2C831203130511740831
:1009A000D12C0800F601F701D52C721CD82CD92CBB
:1009B000DF2C7408F6070318F70A7508F7070130EB
:1009C0000310F40DF50DFF3E031DE02C0130031064
:1009D000F30CF20CFF3E031DE72C72087304031D99
:1009E000F22CF32CD52CF42C7708F3007608F200C7
:1009F000F92C08008B1EFD2CFE2C152D0B1D012D36
:100A0000022D152D0B1106308312031381002408CB
:100A1000250403190C2D0D2D152DFF30A4070318E7
:100A2000A50AFF30A507152D152D71088A00700E37
:100A30008300FE0E7E0E0900F301831203133008BB
:100A40007B060319242D252D322D3008313E8400DC
:100A500083130008F2007208F3000130F2007208FC
:100A6000B007322D7308342D0800F9003F307905A6
:100A7000F7007608F80005300310F80DFF3E031D5F
:100A80003C2D0310780DFF3A013E803877070A129B
:100A90008A1132220A128A1108007E088A007F0811
:100AA00082000A128A114D250A128A118000840AD6
:100AB00004087D0603190034FF0A0319FE0A512DAC
:100AC000FF308312031386008316031789010F304A
:100AD000831603138600FF309500811383120313DE
:100AE000AF01AE01080020342034203420342034FB
:100AF00020345B34203420345D34203420342034DE
:100B000020342034203400348B13831603138112D5
:100B10008111011181100114063083120313810029
:100B20008B128B17080064008001840A04060319E5
:100B300000340406942D831203132508F3002408BF
:100B4000F200A22D0800730883120313A500720897
:100B5000A4008B16080001300A128A1132220A12F0
:100B60008A1108008312031385118515080083126A
:100B700003132F08BB2D0800831203132E08C02D6A
:020B800008006B
:02400E00D4EFED
:00000001FF
