:020000040000FA
:100000000A128A11E52FFF1B0D2883137F1883170F
:100010000008840A0319FF0A080000308A00040857
:10002000840A820700343134323433344134343476
:1000300035343634423437343834393443342A345E
:100040003034233444340034033407340B340E3456
:10005000053449344E345334493452344134203415
:1000600041342034533445345134553445344E34BE
:100070002E340034533445345134553445344E34E1
:1000800043344934413444344F34523400345034CE
:1000900052344F344734523441344D344134563461
:0600A00045344C3400342D
:1001A2002630D3280800831203132308D828080016
:1001B200831203132408DD28080083120313851118
:1001C2008515080001300A128A11CB220A128A11FF
:1001D200080064008001840A04060319003404063E
:1001E200EB28F1007108F0007D08263E84007008BB
:1001F200831380000130F0007008FD0708002034EE
:10020200203420342034203420345B342034203411
:100212005D3420342034203420342034203400341F
:10022200FF308312031386008316031789010F30F0
:10023200831603138600FF30950081138312031384
:10024200A401A30108007E088A007F0882000A1226
:100252008A1124210A128A118000840A04087D0668
:1002620003190034FF0A0319FE0A2829F7003F3058
:100272007705F5007408F60005300310F60DFF3E11
:10028200031D3E290310760DFF3A013E80387507A3
:100292000A128A11CB220A128A110800F101831272
:1002A200031325087D0603195729582965292508AE
:1002B200263E840083130008F0007008F10001302C
:1002C200F0007008A5076529710867290800F10088
:1002D2007A290130FD027D08263E8400831300083E
:1002E200F0007008F2007D08263E84008001013093
:1002F200F102710803197E297F2986297D08031DD1
:10030200832984296A29862986297208882908006E
:10031200F1008030F0007008F300F201A929831285
:1003220003130511710873050319982999299B294B
:1003320005149C290510851C9F29A029A52973084D
:10034200F0007008F204A52905150310F30CA92981
:100352007308031DAD29AE299029831203130511D9
:100362007208B3290800FC007808FB007B08F4003F
:100372007C080A128A1137210A128A11D5297A08B1
:1003820083120313FF00790884000A128A110320E2
:100392000A128A110A128A111B220A128A110130C8
:1003A200F9070318FA0AD5297A0883120313FF0002
:1003B200790884000A128A1103200A128A11003A6B
:1003C200031DE429E529C029E6290800F300730882
:1003D200F200720883120313A2007008F20072087E
:1003E200A1007108F2007208A0008511831603179C
:1003F20088118316031385118312031305118316C3
:100402000317081183160313051183120313051032
:100412008316031708108316031305108316031798
:100422008810831603138514831203130511051014
:1004320085150800F2007208F0007008F3008312BC
:1004420003130816730E0F39F00008087006F0390E
:100452007006880088120330F1009730F000F00B2C
:10046200302AF10B302A352A831203138816081614
:1004720073080F39F00008087006F039700688001A
:1004820088120330F1009730F000F00B462AF10B8E
:10049200462A4B2A83120313881608008312031379
:1004A2002008FF3EF4007408F7000A128A11DE20C9
:1004B2000A128A11F8017D2A7803FF3A770783121C
:1004C20003132107F40074088400831300080A123E
:1004D2008A1189210A128A11F500780883120313FE
:1004E2002207F60076088400750883138000013025
:1004F200F4007408F8077D2A831203132008780297
:10050200031C842A852A5D2A862A0A128A11DE2081
:100512000A128A110800831203130813881308129F
:100522000808F039033888008816C0308316031390
:1005320088008230F500DD30F400F40B9E2AF50BC2
:100542009E2AA32A20300A128A11CB220A128A1169
:1005520028300A128A11CB220A128A110C300A128E
:100562008A11CB220A128A1101300A128A11CB2275
:100572000A128A1102300A128A11CB220A128A1135
:100582008230F500DD30F400F40BC52AF50BC52AE4
:10059200CA2A0800F2007208F0007008F300831201
:1005A20003130812730E0F39F00008087006F039B1
:1005B20070068800881272030319E02AE12AE82AE9
:1005C20002307206031DE62AE72AF22AE82A0330DD
:1005D200F1009730F000F00BEC2AF10BEC2AF12A33
:1005E200F72A0D30F000F00BF42AF72A83120313D6
:1005F2008816203072060319FF2A002B292B0812B5
:1006020073080F39F00008087006F0397006880088
:100612008812720303190E2B0F2B162B023072064F
:10062200031D142B152B202B162B0330F1009730B2
:10063200F000F00B1A2BF10B1A2B1F2B252B0D3070
:10064200F000F00B222B252B831203138816292B83
:100652000800F801FA0104307A02031C312B322B14
:10066200342B9D2B9D2B0130F0007A0A3A2B03107C
:10067200F00DFF3E031D382B7008FF3AF100F10E1A
:1006820083120313060871060F3971068600F901F9
:1006920004307902031C4E2B4F2B512B922B922BA1
:1006A20006080F39F0007009F100F201F209790A27
:1006B200F3000130F4000030F500622B0310F40D5A
:1006C200F50DF30B5F2B71087405F60072087505C2
:1006D200F7007608770403196F2B702B872B7908A4
:1006E200F00002300310F00DFF3E031D732B0130AA
:1006F2007007F1007A08710784000A128A110D202E
:100702000A128A11F2007208F800872B0130F000F9
:100712007008F90704307902031C902B912B512B9E
:10072200922B0130F0007008FA0704307A02031CA1
:100732009B2B9C2B342B9D2B831203132308F0003D
:100742007008A4007808F0007008A300A82B080025
:1007520083120313D001CD01D301D101D2010A12B8
:100762008A118C220A128A110A128A1111210A1282
:100772008A114E3083120313C7004708F000F101BB
:10078200F10A4F300A128A11E7210A128A118312E2
:100792000313CE01CC2B0A128A112A230A128A11C0
:1007A2001A2E942E0A128A114F210A128A118312CA
:1007B2000313C7004708D30041305306031DE22B41
:1007C200E32BE82B6430D1000030D200942E42306B
:1007D2005306031DED2BEE2BF32B6E30D1000030B0
:1007E200D200942E43305306031DF82BF92BFE2B17
:1007F2007830D1000030D200942E44305306031DCD
:10080200032C042C092C8230D1000030D200942E0B
:1008120031305306031D0E2C0F2C142C8C30D100BA
:100822000030D200942E32305306031D192C1A2C9C
:100832001F2C9630D1000030D200942E3330530654
:10084200031D242C252C2A2CA030D1000030D200EC
:10085200942E34305306031D2F2C302C352CAA3005
:10086200D1000030D200942E35305306031D3A2CAD
:100872003B2C402CB430D1000030D200942E3630C4
:100882005306031D452C462C4B2CBE30D1000030A4
:10089200D200942E37305306031D502C512C562C67
:1008A200C830D1000030D200942E38305306031DD8
:1008B2005B2C5C2C612CD230D1000030D200942E03
:1008C20039305306031D662C672C6C2CDC30D100AA
:1008D2000030D200942E61305306031D712C722C0D
:1008E200772CE630D1000030D200942E62305306CD
:1008F200031D7C2C7D2C822CF030D1000030D200E4
:10090200942E63305306031D872C882C8D2CFA30CD
:10091200D1000030D200942E64305306031D922C75
:10092200932C942E0430D1000130D200942E942EB8
:10093200942E942E942E942E942E942E942E942EA5
:10094200942E942E942E942E942E942E942E942E95
:100952004E146530D1000030D200942ECF1CB22C40
:10096200B32C942E0A30D1000030D200942E942E53
:10097200CE146F30D1000030D200942ECF1DC22C85
:10098200C32C942E0A30D1000030D200942E942E23
:100992004E157930D1000030D200942ECF1ED22CC9
:1009A200D32C942E0A30D1000030D200942E942EF3
:1009B200CE158330D1000030D200942ECF1FE22C0E
:1009C200E32C942E0A30D1000030D200942E942EC3
:1009D200063083120313C9001330C800AD30C700BC
:1009E200C70BF12CC80BF12CC90BF12C8D308312E3
:1009F2000313D1000030D200942E0A30D10000300F
:100A0200D200942E0B3083120313C9002630C80083
:100A12005D30C700C70B0B2DC80B0B2DC90B0B2D5F
:100A2200973083120313D1000030D200942E0A3083
:100A3200D1000030D200942E103083120313C9006B
:100A42003930C8000D30C700C70B252DC80B252D26
:100A5200C90B252DA13083120313D1000030D2001F
:100A6200942E0A30D1000030D200942E1530831219
:100A72000313C9004B30C800BD30C700C70B3F2D60
:100A8200C80B3F2DC90B3F2D462DAB3083120313EC
:100A9200D1000030D200942E0A30D1000030D200B2
:100AA200942E1A3083120313C9005E30C8006D30D1
:100AB200C700C70B5A2DC80B5A2DC90B5A2D612DD1
:100AC200B53083120313D1000030D200942E0A30C5
:100AD200D1000030D200942E1F3083120313C900BC
:100AE2007130C8001D30C700C70B752DC80B752D9E
:100AF200C90B752D7C2DBF3083120313D10000303A
:100B0200D200942E0A30D1000030D200942E24302C
:100B120083120313C9008330C800CE30C700C70B4D
:100B2200902DC80B902DC90B902D0000C930831257
:100B32000313D1000030D200942E0A30D1000030CD
:100B4200D200942E293083120313C9009630C800B4
:100B52007E30C700C70BAB2DC80BAB2DC90BAB2D1D
:100B62000000D33083120313D1000030D200942E40
:100B72000A30D1000030D200942E2E30831203139B
:100B8200C900A930C8002E30C700C70BC62DC80B3C
:100B9200C62DC90BC62D0000DD3083120313D10010
:100BA2000030D200942E0A30D1000030D200942EB0
:100BB2004E10E730D1000030D200942E4F1CE22DAF
:100BC200E32D942E0A30D1000030D200942E942EC0
:100BD200CE10F130D1000030D200942E4F1DF22DF4
:100BE200F32D942E0A30D1000030D200942E942E90
:100BF2004E11FB30D1000030D200942E4F1E022E37
:100C0200032E942E0A30D1000030D200942E942E5E
:100C1200CE110530D1000130D200942E4F1F122E7A
:100C2200132E942E0A30D1000030D200942E942E2E
:100C3200942E831203135208003A0319242E013A08
:100C420003198C2E942E5108003A0319942E0A3A55
:100C52000319D32B6E3A0319A92C013A0319AF2CAD
:100C62000B3A0319B92C013A0319BF2C173A03198D
:100C7200C92C013A0319CF2CFB3A0319D92C013A9A
:100C82000319DF2C0F3A0319E92C013A0319FE2C40
:100C92001B3A0319032D013A0319182D373A031988
:100CA2001D2D013A0319322D0B3A0319372D013A42
:100CB20003194D2D1F3A0319522D013A0319682DBC
:100CC2000B3A03196D2D013A0319832D773A031953
:100CD200882D013A03199E2D1B3A0319A32D013ABF
:100CE2000319B92D0F3A0319BE2D013A0319D42D58
:100CF2003B3A0319D92D013A0319DF2D173A03198B
:100D0200E92D013A0319EF2D0B3A0319F92D013A96
:100D12000319FF2D942E5108043A0319092E013AA2
:100D220003190F2E942E0A128A11D4200A128A1144
:100D3200003A03199D2E9E2EDB2F0A128A11D9200A
:100D42000A128A11003A031DA72EA82EDB2F0A12BF
:100D52008A11D4200A128A1183120313C70047088A
:100D6200D000912F0130C7004708CA074A1CBA2E8B
:100D7200BB2EC22E50080A128A11F2200A128A11C0
:100D8200CB2F83120313500820380A128A11F22043
:100D92000A128A11CB2FCB2F013083120313C70003
:100DA2004708CB074B1CD62ED72EDE2E50080A1230
:100DB2008A11F2200A128A11CB2F831203135008D0
:100DC20020380A128A11F2200A128A11CB2FCB2F55
:100DD200013083120313C7004708CC074C1CF22EC4
:100DE200F32EFA2E50080A128A11F2200A128A11E0
:100DF200CB2F83120313500820380A128A11F220D3
:100E02000A128A11CB2FCB2F013083120313C70092
:100E12004708CD074D1C0E2F0F2F162F50080A1210
:100E22008A11F2200A128A11CB2F8312031350085F
:100E320020380A128A11F2200A128A11CB2FCB2FE4
:100E420010300A128A1168210A128A110A128A11B2
:100E5200E3200A128A1183120313CD01CC01CB01C4
:100E6200CA01CB2F3B2F3B2F3B2F3B2F3B2F3B2F3F
:100E72003B2F3B2F50080A128A11F2200A128A11C4
:100E8200CB2F5A2F83120313CA01832FCA01CA0A16
:100E9200832FCB01832FCB01CB0A832FCC01832F4E
:100EA200CC01CC0A832FCD01832FCD01CD0A832F14
:100EB200832F01300A128A1168210A128A118312C1
:100EC2000313C700C8014808003A0319692F832F8A
:100ED2004708413A0319432F033A03194A2F013AAB
:100EE20003194F2F073A0319542F253A0319472F95
:100EF200033A03194C2F013A0319512F073A0319E8
:100F0200562F832F0A128A11E3200A128A11CB2F3D
:100F12000A3083120313D1000030D200CB2FCB2F23
:100F22005008C700C8014808003A0319992FCB2F6F
:100F32004708233A0319892F093A03195A2F1A3AF3
:100F42000319212F013A03193B2F033A03193B2FAF
:100F5200013A03193B2F073A03193B2F013A0319B0
:100F62003B2F033A03193B2F013A03193B2F0F3A48
:100F720003193B2F013A03193B2F783A0319B32E79
:100F8200033A0319CD2E013A0319E92E073A031940
:100F9200052FCB2FF8010A128A11D1200A128A11C9
:100FA200F9000030FA0000300A128A11B4210A1244
:100FB2008A11DB2F0A128A114F220A128A11CC2BB4
:100FC200CC2B0A128A11002883134730FD0001300E
:100FD200FE000030FF00363084000A128A112821F8
:100FE2000A128A112030840036300A128A11EA204D
:0E0FF2000A128A11FD0183010A128A11A92B2D
:02400E00D4EFED
:00000001FF
