:020000040000FA
:060000000A128A110C280F
:10000800FE00030EF0000A08F1000A128A15352FC7
:100018000A128A110F288313B130FD000E30FE003A
:100028005730FF00A03084000A128A1592260A125F
:100038008A116530FD000F30FE005730FF00433055
:1000480084000A128A1592260A128A112030840026
:1000580043300A128A15FB250A128A11FA01FB019C
:1000680083010A128A11132ABE29122A7A08031D4B
:100078003E283F2846280E30F800780883120313DC
:10008800AA00122A7A03031D4A284B2852280B304B
:10009800F800780883120313AA00122A0C30F8001B
:1000A800780883120313AA00122A122A122A7A083D
:1000B800031D5F28602865280E30F8007808AA001C
:1000C800122A02307A02031C6A286B28122A0C3082
:1000D800F8007808AA00122A122A122A0A128A1587
:1000E800C7250A128A110A128A15C3250A128A110B
:1000F80083120313AA01122A0A128A15B9260A12B0
:100108008A11F800F901780883120313A20079080C
:10011800A3000F30F8007808AA00122AE7286430F4
:10012800F8007808AA00122A6E30F8007808AA00A9
:10013800122A7830F8007808AA00122A8230F800CB
:100148007808AA00122AE630F8007808AA00122ACD
:10015800F030F8007808AA00122AFA30F800780877
:10016800AA00122A9630F8007808AA00122AC32892
:10017800C328C328C328C328C328C328C3282208E0
:10018800D03EF20023080318013EFF3EF300E8309A
:10019800F4000330F5000A128A1579270A128A1129
:1001A800730883120313A1007208A0008C30F800B2
:1001B8007808AA00122AAA010A128A15C7250A1263
:1001C8008A11122A122A831203132308003A0319E8
:1001D800EE28DF282208313A0319C328033A031905
:1001E800C328013A0319C328073A0319C328013A57
:1001F8000319C328033A0319C328013A0319C3286A
:100208000F3A0319C328013A0319C328783A031986
:100218009328033A03199828013A03199D28073AA5
:100228000319A228253A0319A728033A0319AC2869
:10023800013A0319B128073A0319B628DF28122A08
:1002480041146530F8007808AA00122AC21C2D292A
:100258002E29122A0A30F8007808AA00122A122A2F
:100268004110E730F8007808AA00122A421C3D29FC
:100278003E29122A0A30F8007808AA00122A122AFF
:10028800C1146F30F8007808AA00122AC21D4D293F
:100298004E29122A0A30F8007808AA00122A122ACF
:1002A800C110F130F8007808AA00122A421D5D2911
:1002B8005E29122A0A30F8007808AA00122A122A9F
:1002C80041157930F8007808AA00122AC21E6D2953
:1002D8006E29122A0A30F8007808AA00122A122A6F
:1002E8004111FB30F8007808AA00122A421E7D2925
:1002F8007E29122A0A30F8007808AA00122A122A3F
:10030800C1158330F8007808AA00122A0A30F800CC
:100318007808AA00122AC1119730F8007808AA00B4
:10032800122A0A30F8007808AA00122A2108F300D5
:100338002008F2000A128A15EB250A128A118D305C
:10034800F800780883120313AA00122A0A128A15E1
:10035800F3250A128A1172087304031DB429B529FA
:10036800122A0A30F800780883120313AA00122A06
:10037800122A122A831203132A08F800F9017908AD
:10038800003A0319C829122A7808003A0319122AD0
:100398000A3A03193A28013A03195B28073A03195C
:1003A8007228023A03198028013A0319E7286B3AA0
:1003B80003192429013A03192A290B3A0319442954
:1003C800013A03194A29173A03196429013A03190A
:1003D8006A29FB3A03198429013A03198A290F3A31
:1003E80003199A29013A0319AA291B3A03198F29D3
:1003F800013A03199529713A03193429013A031965
:100408003A29173A03195429013A03195A290B3A78
:1004180003197429013A03197A29122A0800831644
:100428000313B201B101B10A0A128A11DB260A12BA
:100438008A110A128A111A270A128A110A128A15AF
:100448007B260A128A11413083120313EE006E08CC
:10045800F200F301F30A42300A128A11CA270A127B
:100468008A110A128A1527260A128A113B2A0A12A9
:100478008A1181250A128A1183160313B2010A12FE
:100488008A15CB250A128A11003A03194C2A4D2ADB
:10049800302B0A128A15DA250A128A11003A031D2E
:1004A800562A572A302B0A128A15CB250A128A1186
:1004B80083120313EE006E0883160313B200302B69
:1004C800302B64308312EE006E0883160313B100DC
:1004D800502B0A128A15F3260A128A11831603135F
:1004E800B101502B2330831603133206031D7D2AD6
:1004F8007E2A912AC83083120313EE006E088316F1
:100508000313B1000A128A1514270A128A110A1253
:100518008A1166240A128A11502B83160313320893
:100528000319972A982A502B32080A128A115A233B
:100538000A128A11653083120313EE006E088316BF
:100548000313B100502B502B502B0A128A11F82498
:100558000A128A11643083120313EE006E088316A0
:100568000313B100502B3030831603133206031DDA
:10057800BE2ABF2ACD2A0A128A15F3260A128A1120
:10058800643083120313EE006E0883160313B10060
:10059800502B23303206031DD22AD32A502B0A129D
:1005A8008A1546260A128A11C93083120313EE00EF
:1005B8006E0883160313B100502B502B502B0A12D0
:1005C8008A150E260A128A11003A0319EC2AED2A16
:1005D800FB2AC83083120313EE006E088316031338
:1005E800B1000A128A1166240A128A11502B2A3085
:1005F800831603133206031D022B032B092B0A1241
:100608008A15D0250A128A11182B23308316031352
:100618003206031D102B112B182B0A128A11FE27E4
:100628000A128A11182B182B0A128A1536260A1252
:100638008A11003A0319212B222B282B0A128A111E
:1006480066240A128A11282B0A128A1138200A12E3
:100658008A11502B502B502B831603133108831209
:100668000313EE00EF016F08003A03193C2B502BDF
:100678006E08003A0319652A013A03196D2A653A8A
:100688000319762A013A0319A92AAD3A0319B72A98
:10069800013A0319E32A502B0A128A1158270A1221
:1006A8008A113B2A3B2A0A128A110C28F7002E2CA1
:1006B8000130F500750883120313A907291C652B5F
:1006C800662B6D2B77080A128A1519260A128A11C9
:1006D800652C770820380A128A1519260A128A11F9
:1006E800652C652C0130F500750883120313A807E3
:1006F800281C7F2B802B872B77080A128A1519262E
:100708000A128A11652C770820380A128A151926C8
:100718000A128A11652C652C0130F50075088312C0
:100728000313A707271C992B9A2BA12B77080A12CA
:100738008A1519260A128A11652C770820380A1298
:100748008A1519260A128A11652C652C0130F500C4
:10075800750883120313A607261CB32BB42BBB2BD7
:1007680077080A128A1519260A128A11652C770841
:1007780020380A128A1519260A128A11652C652C46
:10078800CC2BCC2BCC2BCC2BCC2BCC2BCC2BCC2BA9
:1007980077080A128A1519260A128A11652C8312FB
:1007A8000313A601A701A801A9010A128A150326A5
:1007B8000A128A11652C052C83120313A901652CD2
:1007C80083120313A901A90A652C83120313A80134
:1007D800652C83120313A801A80A652C831203133E
:1007E800A701652C83120313A701A70A652C83129E
:1007F8000313A601652C83120313A601A60A652C10
:10080800652C01300A128A15D2260A128A11F500BF
:10081800F6017608003A0319122C652C7508413A3E
:100828000319E02B033A0319E92B013A0319F22BB8
:10083800073A0319FB2B253A0319E42B033A03194A
:10084800ED2B013A0319F62B073A0319FF2B652CF8
:10085800652C652C7708F500F6017608003A03192F
:10086800362C652C75082A3A0319052C1A3A0319EF
:10087800D32B013A0319CC2B033A0319CC2B013A99
:100888000319CC2B073A0319CC2B013A0319CC2BAB
:10089800033A0319CC2B013A0319CC2B0F3A03194D
:1008A800CC2B013A0319CC2B783A03195C2B033A69
:1008B8000319762B013A0319902B073A0319AA2B2F
:1008C800652C08000A128A15D5250A128A11831286
:1008D8000313EA006A08EB00EC01ED01E501E50A03
:1008E8004330E6000030E70000300A128A119327EF
:1008F8000A128A11E32C831203136B080A128A1551
:1009080068260A128A1183120313EA006A08ED00A6
:10091800F601F60A6C08113E84000A128A110A26AA
:100928000A128A110A128A15A1260A128A1130306F
:10093800831203136D02031CA22CA32CB62C3A308D
:100948006D020318A82CA92CB62C6D080A128A155A
:10095800CC270A128A1173300A128A15CC270A1278
:100968008A11D82CED1EB92CBA2CC82C6D08DF3989
:100978000A128A15CC270A128A112D300A128A15F2
:10098800CC270A128A11D82C831203136D080A1275
:100998008A15CC270A128A112B300A128A15CC27FD
:1009A8000A128A11D82CD82C013083120313EA00BA
:1009B8006A08EB070130EA006A08EC07E32C0A1220
:1009C8008A15C0250A128A11831203136B020318B1
:1009D800EE2CEF2CF72C05306C02031CF42CF52CB4
:1009E8007F2CF72CF72C08000A128A15C0250A124A
:1009F8008A1183120313EA006A08EB000530EA0043
:100A08006A08EC00ED01E501E50A5430E600003023
:100A1800E70000300A128A1193270A128A11722DF0
:100A2800013083120313EB020130EC026B080A1247
:100A38008A1568260A128A1183120313EA006A08C3
:100A4800ED00F601F60A6C08163E84000A128A11B7
:100A58000A260A128A110A128A15A1260A128A116E
:100A68003030831203136D02031C3B2D3C2D4F2D98
:100A78003A306D020318412D422D4F2D6D080A1290
:100A88008A15CC270A128A1173300A128A15CC27C4
:100A98000A128A11722DED1E522D532D612D6D08EB
:100AA800DF390A128A15CC270A128A112D300A1248
:100AB8008A15CC270A128A11722D831203136D0826
:100AC8000A128A15CC270A128A112B300A128A15A3
:100AD800CC270A128A11722D722D722D83120313DC
:100AE8006B080319782D792D802D6C08031D7D2D39
:100AF8007E2D142D802D802D080083120313E5010F
:100B0800E70104306702031C8A2D8B2D8D2DF42DEF
:100B1800F42D0130F200670A932D0310F20DFF3E09
:100B2800031D912D7208FF3AF300F30E06087306B1
:100B38000F3973068600E60104306602031CA52DF2
:100B4800A62DA82DE92DE92D06080F39F200720906
:100B5800F300F401F409660AF5000130F6000030EC
:100B6800F700B92D0310F60DF70DF50BB62D730828
:100B78007605F80074087705F900780879040319F0
:100B8800C62DC72DDE2D6608F20002300310F20DC7
:100B9800FF3E031DCA2D01307207F3006708730773
:100BA80084000A128A110A260A128A11F4007408AB
:100BB800E500DE2D0130F2007208E6070430660217
:100BC800031CE72DE82DA82DE92D0130F20072084D
:100BD800E70704306702031CF22DF32D8D2DF42D49
:100BE8002E08F2007208AF006508F2007208AE0025
:040BF800FD2D0800C7
:100C0000FF1B0A2E83137F1883170008840A031919
:100C1000FF0A080006308A000408840A82070034AC
:100C2000313432343334413434343534363442346C
:100C300037343834393443342A3430342334443468
:100C40000134053408340B340E34003403340634D4
:100C500009340D340034033407340B340E340534B6
:100C60005B344534783465346334753463346134CB
:100C70006F3420343E343E343E342034203420342B
:100C80000034203420342034203420343C343C34AC
:100C90003C342034453464346934633461346F3413
:100CA0005D34003449344E34533449345234413481
:100CB0002034413420345334453451345534453490
:100CC0004E342E3400345334453451345534453485
:100CD0004E3443344934413444344F345234003474
:100CE000503452344F344734523441344D3441340B
:100CF000563445344C340034F4007408F200720861
:100D0000F500831203130812750E0F39F20008085C
:100D10007206F03972068800881274030319912E46
:100D2000922E992E02307406031D972E982EA32E14
:100D3000992E0330F3009730F200F20B9D2EF30B47
:100D40009D2EA22EA82E0D30F200F20BA52EA82E5D
:100D5000831203138816203074060319B02EB12EA7
:100D6000DA2E081275080F39F20008087206F039F9
:100D700072068800881274030319BF2EC02EC72E76
:100D800002307406031DC52EC62ED12EC72E033089
:100D9000F3009730F200F20BCB2EF30BCB2ED02EBC
:100DA000D62E0D30F200F20BD32ED62E8312031363
:100DB0008816DA2E0800831203130813881308120A
:100DC0000808F039033888008816C03083160313EA
:100DD00088008230F700DD30F600F60BED2EF70BC1
:100DE000ED2EF22E20300A128A117C260A128A1168
:100DF00028300A128A117C260A128A110C300A1233
:100E00008A117C260A128A1101300A128A117C2664
:100E10000A128A1102300A128A117C260A128A11D9
:100E20008230F700DD30F600F60B142FF70B142F8D
:100E3000192F080083120313E5015430E6008030B7
:100E4000E70002300A128A1193270A128A1102302F
:100E500083120313EC000430EB00B930EA00EA0B14
:100E60002F2FEB0B2F2FEC0B2F2F362F831203136B
:100E7000E501E50A6130E6008030E70002300A1241
:100E80008A1193270A128A110B3083120313EC0084
:100E90002630EB005D30EA00EA0B4C2FEB0B4C2FB9
:100EA000EC0B4C2F0A128A15E4250A128A1108004D
:100EB000831203132B08FF3EF6007608E5000A12A2
:100EC0008A15DF250A128A1183120313E601862F81
:100ED0006603FF3A65072C07F60076088400831343
:100EE00000080A128A15A1270A128A11F700831234
:100EF000031366082D07F800780884007708831329
:100F000080000130F6007608E607862F2B0866027F
:100F1000031C8B2F8C2F682F8D2F0A128A15DF252B
:100F20000A128A11080083120313E9006508E80019
:100F30006808F60069080A128A15A1260A128A11A1
:100F4000B82F831203136708FF00660884000A1293
:100F50008A1100260A128A110A128A15CC270A124F
:100F60008A11013083120313E6070318E70AB82F2A
:100F7000831203136708FF00660884000A128A11AF
:100F800000260A128A11003A031DC72FC82FA12F6D
:100F9000C92F0800F5007508F400740883120313C4
:100FA000AD007208F4007408AC007308F400740813
:100FB000AB0085118316031788118316031385115F
:100FC00083120313051183160317081183160313E5
:100FD00005118312031305108316031708108316D7
:100FE0000313051083160317881083160313851443
:100FF000831203130511051085150800FA01080076
:101B80007B08C22D080083120313C10108008312D1
:101B90000313B0010800831203132E08CF2D080091
:101BA0000130F2007208FA070800831203133008AC
:101BB000D92D0800831203132F08DE2D080083128D
:101BC000031385118515080001300A128A117C263D
:101BD0000A128A150800730883120313A5007208FD
:101BE000A4008B160800831203132508F3002408B1
:101BF000F200FA2D080064008001840A040603192B
:101C000000340406FC2D10300A128A15D2260A125E
:101C10008A15FB0183120313B0010800831203131A
:101C20002A080319142E162E0130172E0030182EF4
:101C30000800F3007308F2007B08313E840072084C
:101C4000831380000130F2007208FB0708008B1339
:101C500083160313811281110111811001140630C2
:101C60008312031381008B128B1708000A30831232
:101C700003132A06031D3D2E3E2E422E0130452E13
:101C8000452E452E0030452E452E08000A30F20024
:101C9000720883120313AA000A128A15C7250A12B2
:101CA0008A150A128A11FE270A128A1508002034A2
:101CB000203420342034203420345B342034203449
:101CC0005D34203420342034203420342034003457
:101CD000F2007B08720203186E2E6F2E772E7208A8
:101CE000313E8400831300087A2E7A2E7A2E00303B
:101CF0007A2E7A2E0800FF30831203138600831693
:101D0000031789010F30831603138600FF309500F7
:101D1000811383120313AF01AE0108007E088A000D
:101D20007F0882000A128A158E260A128A15800000
:101D3000840A04087D0603190034FF0A0319FE0A09
:101D4000922EF9003F307905F7007608F80005304B
:101D50000310F80DFF3E031DA82E0310780DFF3A67
:101D6000013E803877070A128A117C260A128A15EA
:101D70000800F3018312031330087B060319C12EF8
:101D8000C22ECF2E3008313E840083130008F200AB
:101D90007208F3000130F2007208B007CF2E73080A
:101DA000D12E0800F300E42E0130FB027B08313E07
:101DB000840083130008F2007208F4007B08313EAF
:101DC000840080010130F30273080319E82EE92E24
:101DD000F02E7B08031DED2EEE2ED42EF02EF02ECD
:101DE0007408F22E08000A128A15E4250A128A15D0
:101DF00083120313E5013230E6008030E700003043
:101E00000A128A1193270A128A1583120313E50115
:101E1000E50A5430E6000030E70000300A128A116B
:101E200093270A128A1508000A128A15E4250A1255
:101E30008A1583120313E5012130E6008030E700A4
:101E400000300A128A1193270A128A15831203138B
:101E5000E501E50A4330E6000030E70000300A12F1
:101E60008A1193270A128A1508008B1E382F392FE2
:101E7000502F0B1D3C2F3D2F502F0B11063083127E
:101E800003138100240825040319472F482F502FDE
:101E9000FF30A4070318A50AFF30A507502F502FC5
:101EA00071088A00700E8300FE0E7E0E09005B34FE
:101EB000203420345D342034203420342034203445
:101EC0002034203420342034203420342034003492
:101ED0002034203420342034203420342034203462
:101EE00020342034203420345B34203420345D34DA
:101EF0000034F601F7017C2F721C7F2F802F862F74
:101F00007408F6070318F70A7508F707013003107D
:101F1000F40DF50DFF3E031D872F01300310F30C68
:101F2000F20CFF3E031D8E2F72087304031D992FC0
:101F30009A2F7C2F9B2F7708F3007608F200A02FB2
:101F40000800F3008030F2007208F500F401C12FA0
:101F5000831203130511730875050319B02FB12FF0
:101F6000B32F0514B42F0510851CB72FB82FBD2F24
:101F70007508F2007208F404BD2F05150310F50C66
:101F8000C12F7508031DC52FC62FA82F8312031359
:101F900005117408CB2F0800F4007408F2007208D1
:101FA000F500831203130816750E0F39F2000808A6
:101FB0007206F0397206880088120330F3009730F9
:101FC000F200F20BE12FF30BE12FE62F8312031344
:101FD0008816081675080F39F20008087206F039DD
:101FE0007206880088120330F3009730F200F20B7B
:101FF000F72FF30BF72FFC2F83120313881608001B
:02400E00D4EFED
:00000001FF
