:020000040000FA
:100000000A128A11E52FFF1B0D2883137F1883170F
:100010000008840A0319FF0A080000308A00040857
:10002000840A820700343134323433344134343476
:1000300035343634423437343834393443342A345E
:100040003034233444340034033407340B340E3456
:10005000053449344E345334493452344134203415
:1000600041342034533445345134553445344E34BE
:100070002E340034533445345134553445344E34E1
:1000800043344934413444344F34523400345034CE
:1000900052344F344734523441344D344134563461
:0600A00045344C3400342D
:1000E40026307428080083120313A5010800831224
:1000F400031323087D28080083120313240882288D
:1001040008008312031385118515080001300A12B3
:100114008A11C1220A128A11080064008001840A2B
:100124000406031900340406902810300A128A11B8
:1001340024210A128A11FD0183120313A501080068
:10014400F8011730F9008030FA0000300A128A11E1
:1001540070210A128A110800F1007108F0007D086C
:10016400263E84007008831380000130F00070087C
:10017400FD07080020342034203420342034203477
:100184005B34203420345D34203420342034203453
:10019400203420340034FF30831203138600831686
:1001A400031789010F30831603138600FF3095006F
:1001B400811383120313A401A30108007E088A009B
:1001C4007F0882000A128A11E0200A128A11800034
:1001D400840A04087D0603190034FF0A0319FE0A81
:1001E400E428F7003F307705F5007408F600053081
:1001F4000310F60DFF3E031DFA280310760DFF3A97
:10020400013E803875070A128A11C1220A128A1126
:100214000800F1018312031325087D06031913292D
:10022400142921292508263E840083130008F000A0
:100234007008F1000130F0007008A5072129710849
:1002440023290800F10036290130FD027D08263EED
:10025400840083130008F0007008F2007D08263E35
:10026400840080010130F102710803193A293B2905
:1002740042297D08031D3F29402926294229422974
:10028400720844290800F1008030F0007008F3007F
:10029400F20165298312031305117108730503190B
:1002A400542955295729051458290510851C5B29FB
:1002B4005C2961297308F0007008F20461290515AE
:1002C4000310F30C65297308031D69296A294C2955
:1002D40083120313051172086F290800FC007808C3
:1002E400FB007B08F4007C080A128A11F3200A122E
:1002F4008A1191297A0883120313FF007908840074
:100304000A128A1103200A128A110A128A11D721A9
:100314000A128A110130F9070318FA0A91297A0896
:1003240083120313FF00790884000A128A11032040
:100334000A128A11003A031DA029A1297C29A229A5
:100344000800F3007308F200720883120313A2007A
:100354007008F2007208A1007108F2007208A0008F
:1003640085118316031788118316031385118312CD
:1003740003130511831603170811831603130511BC
:10038400831203130510831603170810831603132F
:10039400051083160317881083160313851483121C
:1003A40003130511051085150800F2007208F0000A
:1003B4007008F300831203130816730E0F39F0004C
:1003C40008087006F0397006880088120330F100BE
:1003D4009730F000F00BEC29F10BEC29F129831292
:1003E40003138816081673080F39F00008087006FE
:1003F400F0397006880088120330F1009730F0005D
:10040400F00B022AF10B022A072A8312031388161F
:100414000800F8012830F9008030FA0002300A128E
:100424008A1170210A128A11023083120313C9003F
:100434000430C800B930C700C70B1E2AC80B1E2AD7
:10044400C90B1E2A252AF801F80A3530F900803034
:10045400FA0002300A128A1170210A128A110B3032
:1004640083120313C9002630C8005D30C700C70BD0
:10047400392AC80B392AC90B392A0A128A11882049
:100484000A128A110800831203132008FF3EF400A5
:100494007408F7000A128A1183200A128A11F801DB
:1004A400732A7803FF3A7707831203132107F400B2
:1004B40074088400831300080A128A1145210A1261
:1004C4008A11F5007808831203132207F6007608D0
:1004D40084007508831380000130F4007408F80761
:1004E400732A8312031320087802031C7A2A7B2AB6
:1004F400532A7C2A0A128A1183200A128A110800BC
:10050400831203130813881308120808F0390338F8
:1005140088008816C0308316031388008230F500E3
:10052400DD30F400F40B942AF50B942A992A203038
:100534000A128A11C1220A128A1128300A128A1157
:10054400C1220A128A110C300A128A11C1220A121B
:100554008A1101300A128A11C1220A128A11023048
:100564000A128A11C1220A128A118230F500DD3082
:10057400F400F40BBB2AF50BBB2AC02A0800F200D6
:100584007208F0007008F300831203130812730E4C
:100594000F39F00008087006F039700688008812D8
:1005A40072030319D62AD72ADE2A02307206031DE3
:1005B400DC2ADD2AE82ADE2A0330F1009730F00035
:1005C400F00BE22AF10BE22AE72AED2A0D30F000C3
:1005D400F00BEA2AED2A83120313881620307206E0
:1005E4000319F52AF62A1F2B081273080F39F00095
:1005F40008087006F039700688008812720303191F
:10060400042B052B0C2B02307206031D0A2B0B2B1B
:10061400162B0C2B0330F1009730F000F00B102B4D
:10062400F10B102B152B1B2B0D30F000F00B182B9E
:100634001B2B8312031388161F2B0800F801FA01E1
:1006440004307A02031C272B282B2A2B932B932B61
:100654000130F0007A0A302B0310F00DFF3E031D29
:100664002E2B7008FF3AF100F10E831203130608D3
:1006740071060F3971068600F90104307902031CF2
:10068400442B452B472B882B882B06080F39F00069
:100694007009F100F201F209790AF3000130F40063
:1006A4000030F500582B0310F40DF50DF30B552B0A
:1006B40071087405F60072087505F700760877046A
:1006C4000319652B662B7D2B7908F000023003108B
:1006D400F00DFF3E031D692B01307007F1007A080D
:1006E400710784000A128A110D200A128A11F2007D
:1006F4007208F8007D2B0130F0007008F90704300F
:100704007902031C862B872B472B882B0130F000A2
:100714007008FA0704307A02031C912B922B2A2BBF
:10072400932B831203132308F0007008A4007808A5
:10073400F0007008A3009E2B080083120313D3015A
:10074400D001D601D401D5010A128A1182220A12DB
:100754008A110A128A110B220A128A110A128A11A8
:10076400CD200A128A11513083120313CA004A0899
:10077400F000F101F10A52300A128A11A3210A127F
:100784008A1183120313D101C72B0A128A11202361
:100794000A128A110A128A11A2200A128A11102E30
:1007A4008A2E0A128A110B210A128A118312031348
:1007B400CA004A08D60041305606031DE22BE32B3B
:1007C400E82B6430D4000030D5008A2E423056061F
:1007D400031DED2BEE2BF32B6E30D4000030D5002F
:1007E4008A2E43305606031DF82BF92BFE2B783046
:1007F400D4000030D5008A2E44305606031D032C45
:10080400042C092C8230D4000030D5008A2E3130DB
:100814005606031D0E2C0F2C142C8C30D4000030E3
:10082400D5008A2E32305606031D192C1A2C1F2C83
:100834009630D4000030D5008A2E33305606031D7E
:10084400242C252C2A2CA030D4000030D5008A2E4C
:1008540034305606031D2F2C302C352CAA30D400EE
:100864000030D5008A2E35305606031D3A2C3B2C19
:10087400402CB430D4000030D5008A2E36305606D1
:10088400031D452C462C4B2CBE30D4000030D50023
:100894008A2E37305606031D502C512C562CC83046
:1008A400D4000030D5008A2E38305606031D5B2C48
:1008B4005C2C612CD230D4000030D5008A2E393023
:1008C4005606031D662C672C6C2CDC30D4000030DB
:1008D400D5008A2E61305606031D712C722C772C9C
:1008E400E630D4000030D5008A2E62305606031D4F
:1008F4007C2C7D2C822CF030D4000030D5008A2E44
:1009040063305606031D872C882C8D2CFA30D400B6
:100914000030D5008A2E64305606031D922C932C89
:100924008A2E0430D4000130D5008A2E8A2E8A2ED5
:100934008A2E8A2E8A2E8A2E8A2E8A2E8A2E8A2EF3
:100944008A2E8A2E8A2E8A2E8A2E8A2E8A2E511436
:100954006530D4000030D5008A2ED21CB22CB32CC2
:100964008A2E0A30D4000030D5008A2E8A2ED11463
:100974006F30D4000030D5008A2ED21DC22CC32C77
:100984008A2E0A30D4000030D5008A2E8A2E5115C2
:100994007930D4000030D5008A2ED21ED22CD32C2C
:1009A4008A2E0A30D4000030D5008A2E8A2ED11522
:1009B4008330D4000030D5008A2E0A30D4000030B1
:1009C400D5008A2E063083120313CC001330CB00DB
:1009D400AD30CA00CA0BEC2CCB0BEC2CCC0BEC2CA2
:1009E4008D3083120313D4000030D5008A2E0A30D0
:1009F400D4000030D5008A2E0B3083120313CC00B0
:100A04002630CB005D30CA00CA0B062DCB0B062D59
:100A1400CC0B062D973083120313D4000030D5007D
:100A24008A2E0A30D4000030D5008A2E103083126A
:100A34000313CC003930CB000D30CA00CA0B202D73
:100A4400CB0B202DCC0B202DA13083120313D4000B
:100A54000030D5008A2E0A30D4000030D5008A2E0A
:100A6400153083120313CC004B30CB00BD30CA00C9
:100A7400CA0B3A2DCB0B3A2DCC0B3A2D412DAB3072
:100A840083120313D4000030D5008A2E0A30D40018
:100A94000030D5008A2E1A3083120313CC005E3046
:100AA400CB006D30CA00CA0B552DCB0B552DCC0B8A
:100AB400552D5C2DB53083120313D4000030D500BE
:100AC4008A2E0A30D4000030D5008A2E1F308312BB
:100AD4000313CC007130CB001D30CA00CA0B702D3B
:100AE400CB0B702DCC0B702D772DBF3083120313DD
:100AF400D4000030D5008A2E0A30D4000030D5004E
:100B04008A2E243083120313CC008330CB00CE30E2
:100B1400CA00CA0B8B2DCB0B8B2DCC0B8B2D00005D
:100B2400C93083120313D4000030D5008A2E0A3052
:100B3400D4000030D5008A2E293083120313CC0050
:100B44009630CB007E30CA00CA0BA62DCB0BA62D47
:100B5400CC0BA62D0000D33083120313D400003035
:100B6400D5008A2E0A30D4000030D5008A2E2E30CB
:100B740083120313CC00A930CB002E30CA00CA0B59
:100B8400C12DCB0BC12DCC0BC12D0000DD30831248
:100B94000313D4000030D5008A2E0A30D40000306C
:100BA400D5008A2E5110E730D4000030D5008A2EAB
:100BB400521CDD2DDE2D8A2E0A30D4000030D500E3
:100BC4008A2E8A2ED110F130D4000030D5008A2E1E
:100BD400521DED2DEE2D8A2E0A30D4000030D500A2
:100BE4008A2E8A2E5111FB30D4000030D5008A2E73
:100BF400521EFD2DFE2D8A2E0A30D4000030D50061
:100C04008A2E8A2ED1110530D4000130D5008A2EC7
:100C14000A30D4000030D5008A2E8A2E83120313A2
:100C24005508003A03191A2E013A0319822E8A2E06
:100C34005408003A03198A2E0A3A0319D32B6E3A40
:100C44000319A92C013A0319AF2C0B3A0319B92C37
:100C5400013A0319BF2C173A0319C92C013A031995
:100C6400CF2CFB3A0319D92C013A0319DF2C0F3A84
:100C74000319E42C013A0319F92C1B3A0319FE2C2D
:100C8400013A0319132D373A0319182D013A0319A0
:100C94002D2D0B3A0319322D013A0319482D1F3A11
:100CA40003194D2D013A0319632D0B3A0319682DCD
:100CB400013A03197E2D773A0319832D013A03195A
:100CC400992D1B3A03199E2D013A0319B42D0F3A9D
:100CD4000319B92D013A0319CF2D3B3A0319D42D29
:100CE400013A0319DA2D173A0319E42D013A0319CD
:100CF400EA2D0B3A0319F42D013A0319FA2D8A2E21
:100D04005408043A0319042E013A03190A2E8A2EB0
:100D14000A128A1179200A128A11003A0319932EB1
:100D2400942EDB2F0A128A117E200A128A11003AAD
:100D3400031D9D2E9E2EDB2F0A128A1179200A1282
:100D44008A1183120313CA004A08D300902F01307A
:100D5400CA004A08CD074D1CB02EB12EB82E530838
:100D64000A128A11AE200A128A11CA2F831203139F
:100D7400530820380A128A11AE200A128A11CA2F87
:100D8400CA2F013083120313CA004A08CE074E1C2F
:100D9400CC2ECD2ED42E53080A128A11AE200A125C
:100DA4008A11CA2F83120313530820380A128A1196
:100DB400AE200A128A11CA2FCA2F013083120313DC
:100DC400CA004A08CF074F1CE82EE92EF02E53081C
:100DD4000A128A11AE200A128A11CA2F831203132F
:100DE400530820380A128A11AE200A128A11CA2F17
:100DF400CA2F013083120313CA004A08D007501CBB
:100E0400042F052F0C2F53080A128A11AE200A1240
:100E14008A11CA2F83120313530820380A128A1125
:100E2400AE200A128A11CA2FCA2F0A128A118820E8
:100E34000A128A1183120313D001CF01CE01CD010E
:100E4400D1010A128A1197200A128A1183120313FC
:100E5400D401D501CA2F352F352F352F352F352FF6
:100E6400352F352F352F53080A128A11AE200A1256
:100E74008A11CA2F542F83120313CD017D2FCD0164
:100E8400CD0A7D2FCE017D2FCE01CE0A7D2FCF013D
:100E94007D2FCF01CF0A7D2FD0017D2FD001D00A25
:100EA4007D2F7D2F01300A128A1124210A128A1102
:100EB40083120313CA00CB014B08003A0319632FB2
:100EC4007D2F4A08413A03193D2F033A0319442F51
:100ED400013A0319492F073A03194E2F253A0319EA
:100EE400412F033A0319462F013A03194B2F073AAE
:100EF4000319502F7D2F0A128A1188200A128A1191
:100F0400CA2F0A128A1175200A128A110A30831212
:100F14000313D4000030D500CA2FCA2F5308CA00C7
:100F2400CB014B08003A0319982FCA2F4A08233AD9
:100F34000319832F093A0319542F1A3A0319172F47
:100F4400013A0319352F033A0319352F013A0319CE
:100F5400352F073A0319352F013A0319352F033A70
:100F64000319352F013A0319352F0F3A0319352F79
:100F7400013A0319352F783A0319A92E033A0319B4
:100F8400C32E013A0319DF2E073A0319FB2ECA2F89
:100F9400F801F80A0A128A1172200A128A11F90059
:100FA4000030FA0000300A128A1170210A128A11E4
:100FB400DB2F0A128A1145220A128A11C72BC72B6A
:100FC4000A128A11002883134730FD000030FE0006
:100FD400BC30FF00363084000A128A11E4200A1261
:100FE4008A112030840036300A128A118F200A12A6
:0C0FF4008A11FD0183010A128A119F2B53
:02400E00D4EFED
:00000001FF
